{
   "contractName": "NextPlanet_ERC721",
   "abi": [
      {
         "inputs": [
            {
               "internalType": "string",
               "name": "name",
               "type": "string"
            },
            {
               "internalType": "string",
               "name": "symbol",
               "type": "string"
            },
            {
               "internalType": "string",
               "name": "tokenURIPrefix",
               "type": "string"
            }
         ],
         "stateMutability": "nonpayable",
         "type": "constructor"
      },
      {
         "anonymous": false,
         "inputs": [
            {
               "indexed": true,
               "internalType": "address",
               "name": "owner",
               "type": "address"
            },
            {
               "indexed": true,
               "internalType": "address",
               "name": "approved",
               "type": "address"
            },
            {
               "indexed": true,
               "internalType": "uint256",
               "name": "tokenId",
               "type": "uint256"
            }
         ],
         "name": "Approval",
         "type": "event"
      },
      {
         "anonymous": false,
         "inputs": [
            {
               "indexed": true,
               "internalType": "address",
               "name": "owner",
               "type": "address"
            },
            {
               "indexed": true,
               "internalType": "address",
               "name": "operator",
               "type": "address"
            },
            {
               "indexed": false,
               "internalType": "bool",
               "name": "approved",
               "type": "bool"
            }
         ],
         "name": "ApprovalForAll",
         "type": "event"
      },
      {
         "anonymous": false,
         "inputs": [
            {
               "indexed": true,
               "internalType": "address",
               "name": "from",
               "type": "address"
            },
            {
               "indexed": true,
               "internalType": "address",
               "name": "to",
               "type": "address"
            },
            {
               "indexed": true,
               "internalType": "uint256",
               "name": "tokenId",
               "type": "uint256"
            }
         ],
         "name": "Transfer",
         "type": "event"
      },
      {
         "anonymous": false,
         "inputs": [
            {
               "indexed": false,
               "internalType": "string",
               "name": "value",
               "type": "string"
            },
            {
               "indexed": true,
               "internalType": "uint256",
               "name": "id",
               "type": "uint256"
            }
         ],
         "name": "URI",
         "type": "event"
      },
      {
         "anonymous": false,
         "inputs": [
            {
               "indexed": false,
               "internalType": "string",
               "name": "value",
               "type": "string"
            }
         ],
         "name": "tokenBaseURI",
         "type": "event"
      },
      {
         "inputs": [
            {
               "internalType": "address",
               "name": "to",
               "type": "address"
            },
            {
               "internalType": "uint256",
               "name": "tokenId",
               "type": "uint256"
            }
         ],
         "name": "approve",
         "outputs": [],
         "stateMutability": "nonpayable",
         "type": "function"
      },
      {
         "inputs": [
            {
               "internalType": "address",
               "name": "owner",
               "type": "address"
            }
         ],
         "name": "balanceOf",
         "outputs": [
            {
               "internalType": "uint256",
               "name": "",
               "type": "uint256"
            }
         ],
         "stateMutability": "view",
         "type": "function",
         "constant": true
      },
      {
         "inputs": [],
         "name": "baseURI",
         "outputs": [
            {
               "internalType": "string",
               "name": "",
               "type": "string"
            }
         ],
         "stateMutability": "view",
         "type": "function",
         "constant": true
      },
      {
         "inputs": [
            {
               "internalType": "uint256",
               "name": "tokenId",
               "type": "uint256"
            }
         ],
         "name": "getApproved",
         "outputs": [
            {
               "internalType": "address",
               "name": "",
               "type": "address"
            }
         ],
         "stateMutability": "view",
         "type": "function",
         "constant": true
      },
      {
         "inputs": [
            {
               "internalType": "uint256",
               "name": "tokenId",
               "type": "uint256"
            }
         ],
         "name": "getCreator",
         "outputs": [
            {
               "internalType": "address",
               "name": "",
               "type": "address"
            }
         ],
         "stateMutability": "view",
         "type": "function",
         "constant": true
      },
      {
         "inputs": [
            {
               "internalType": "address",
               "name": "owner",
               "type": "address"
            },
            {
               "internalType": "address",
               "name": "operator",
               "type": "address"
            }
         ],
         "name": "isApprovedForAll",
         "outputs": [
            {
               "internalType": "bool",
               "name": "",
               "type": "bool"
            }
         ],
         "stateMutability": "view",
         "type": "function",
         "constant": true
      },
      {
         "inputs": [],
         "name": "name",
         "outputs": [
            {
               "internalType": "string",
               "name": "",
               "type": "string"
            }
         ],
         "stateMutability": "view",
         "type": "function",
         "constant": true
      },
      {
         "inputs": [],
         "name": "owner",
         "outputs": [
            {
               "internalType": "address",
               "name": "",
               "type": "address"
            }
         ],
         "stateMutability": "view",
         "type": "function",
         "constant": true
      },
      {
         "inputs": [
            {
               "internalType": "uint256",
               "name": "tokenId",
               "type": "uint256"
            }
         ],
         "name": "ownerOf",
         "outputs": [
            {
               "internalType": "address",
               "name": "",
               "type": "address"
            }
         ],
         "stateMutability": "view",
         "type": "function",
         "constant": true
      },
      {
         "inputs": [
            {
               "internalType": "uint256",
               "name": "tokenId",
               "type": "uint256"
            }
         ],
         "name": "royaltyFee",
         "outputs": [
            {
               "internalType": "uint256",
               "name": "",
               "type": "uint256"
            }
         ],
         "stateMutability": "view",
         "type": "function",
         "constant": true
      },
      {
         "inputs": [
            {
               "internalType": "address",
               "name": "from",
               "type": "address"
            },
            {
               "internalType": "address",
               "name": "to",
               "type": "address"
            },
            {
               "internalType": "uint256",
               "name": "tokenId",
               "type": "uint256"
            }
         ],
         "name": "safeTransferFrom",
         "outputs": [],
         "stateMutability": "nonpayable",
         "type": "function"
      },
      {
         "inputs": [
            {
               "internalType": "address",
               "name": "from",
               "type": "address"
            },
            {
               "internalType": "address",
               "name": "to",
               "type": "address"
            },
            {
               "internalType": "uint256",
               "name": "tokenId",
               "type": "uint256"
            },
            {
               "internalType": "bytes",
               "name": "_data",
               "type": "bytes"
            }
         ],
         "name": "safeTransferFrom",
         "outputs": [],
         "stateMutability": "nonpayable",
         "type": "function"
      },
      {
         "inputs": [
            {
               "internalType": "address",
               "name": "operator",
               "type": "address"
            },
            {
               "internalType": "bool",
               "name": "approved",
               "type": "bool"
            }
         ],
         "name": "setApprovalForAll",
         "outputs": [],
         "stateMutability": "nonpayable",
         "type": "function"
      },
      {
         "inputs": [
            {
               "internalType": "bytes4",
               "name": "interfaceId",
               "type": "bytes4"
            }
         ],
         "name": "supportsInterface",
         "outputs": [
            {
               "internalType": "bool",
               "name": "",
               "type": "bool"
            }
         ],
         "stateMutability": "view",
         "type": "function",
         "constant": true
      },
      {
         "inputs": [],
         "name": "symbol",
         "outputs": [
            {
               "internalType": "string",
               "name": "",
               "type": "string"
            }
         ],
         "stateMutability": "view",
         "type": "function",
         "constant": true
      },
      {
         "inputs": [
            {
               "internalType": "uint256",
               "name": "index",
               "type": "uint256"
            }
         ],
         "name": "tokenByIndex",
         "outputs": [
            {
               "internalType": "uint256",
               "name": "",
               "type": "uint256"
            }
         ],
         "stateMutability": "view",
         "type": "function",
         "constant": true
      },
      {
         "inputs": [],
         "name": "tokenCounter",
         "outputs": [
            {
               "internalType": "uint256",
               "name": "",
               "type": "uint256"
            }
         ],
         "stateMutability": "view",
         "type": "function",
         "constant": true
      },
      {
         "inputs": [
            {
               "internalType": "address",
               "name": "owner",
               "type": "address"
            },
            {
               "internalType": "uint256",
               "name": "index",
               "type": "uint256"
            }
         ],
         "name": "tokenOfOwnerByIndex",
         "outputs": [
            {
               "internalType": "uint256",
               "name": "",
               "type": "uint256"
            }
         ],
         "stateMutability": "view",
         "type": "function",
         "constant": true
      },
      {
         "inputs": [
            {
               "internalType": "uint256",
               "name": "tokenId",
               "type": "uint256"
            }
         ],
         "name": "tokenURI",
         "outputs": [
            {
               "internalType": "string",
               "name": "",
               "type": "string"
            }
         ],
         "stateMutability": "view",
         "type": "function",
         "constant": true
      },
      {
         "inputs": [],
         "name": "totalSupply",
         "outputs": [
            {
               "internalType": "uint256",
               "name": "",
               "type": "uint256"
            }
         ],
         "stateMutability": "view",
         "type": "function",
         "constant": true
      },
      {
         "inputs": [
            {
               "internalType": "address",
               "name": "from",
               "type": "address"
            },
            {
               "internalType": "address",
               "name": "to",
               "type": "address"
            },
            {
               "internalType": "uint256",
               "name": "tokenId",
               "type": "uint256"
            }
         ],
         "name": "transferFrom",
         "outputs": [],
         "stateMutability": "nonpayable",
         "type": "function"
      },
      {
         "inputs": [
            {
               "internalType": "address",
               "name": "newOwner",
               "type": "address"
            }
         ],
         "name": "ownerTransfership",
         "outputs": [
            {
               "internalType": "bool",
               "name": "",
               "type": "bool"
            }
         ],
         "stateMutability": "nonpayable",
         "type": "function"
      },
      {
         "inputs": [
            {
               "internalType": "string",
               "name": "tokenURI",
               "type": "string"
            },
            {
               "internalType": "uint256",
               "name": "fee",
               "type": "uint256"
            },
            {
               "components": [
                  {
                     "internalType": "uint8",
                     "name": "v",
                     "type": "uint8"
                  },
                  {
                     "internalType": "bytes32",
                     "name": "r",
                     "type": "bytes32"
                  },
                  {
                     "internalType": "bytes32",
                     "name": "s",
                     "type": "bytes32"
                  }
               ],
               "internalType": "struct NextPlanet_ERC721.Sign",
               "name": "sign",
               "type": "tuple"
            }
         ],
         "name": "createCollectible",
         "outputs": [
            {
               "internalType": "uint256",
               "name": "",
               "type": "uint256"
            }
         ],
         "stateMutability": "nonpayable",
         "type": "function"
      },
      {
         "inputs": [
            {
               "internalType": "string",
               "name": "_baseURI",
               "type": "string"
            }
         ],
         "name": "setBaseURI",
         "outputs": [],
         "stateMutability": "nonpayable",
         "type": "function"
      },
      {
         "inputs": [
            {
               "internalType": "uint256",
               "name": "tokenId",
               "type": "uint256"
            }
         ],
         "name": "burn",
         "outputs": [],
         "stateMutability": "nonpayable",
         "type": "function"
      }
   ],
   "bytecode": "0x60806040523480156200001157600080fd5b50604051620049ea380380620049ea8339818101604052810190620000379190620004aa565b8282620000516301ffc9a760e01b6200013060201b60201c565b8160069080519060200190620000699291906200025d565b508060079080519060200190620000829291906200025d565b506200009b6380ac58cd60e01b6200013060201b60201c565b620000b3635b5e139f60e01b6200013060201b60201c565b620000cb63780e9d6360e01b6200013060201b60201c565b50506001600c8190555033600d60006101000a81548173ffffffffffffffffffffffffffffffffffffffff021916908373ffffffffffffffffffffffffffffffffffffffff16021790555062000127816200020860201b60201c565b505050620006bb565b63ffffffff60e01b817bffffffffffffffffffffffffffffffffffffffffffffffffffffffff191614156200019c576040517f08c379a00000000000000000000000000000000000000000000000000000000081526004016200019390620005c4565b60405180910390fd5b6001600080837bffffffffffffffffffffffffffffffffffffffffffffffffffffffff19167bffffffffffffffffffffffffffffffffffffffffffffffffffffffff1916815260200190815260200160002060006101000a81548160ff02191690831515021790555050565b80600b9080519060200190620002209291906200025d565b507f5514cc7324ac64a875ba50a1849367d39c8b030fe0f563c3c7142984552bc3068160405162000252919062000632565b60405180910390a150565b8280546200026b9062000685565b90600052602060002090601f0160209004810192826200028f5760008555620002db565b82601f10620002aa57805160ff1916838001178555620002db565b82800160010185558215620002db579182015b82811115620002da578251825591602001919060010190620002bd565b5b509050620002ea9190620002ee565b5090565b5b8082111562000309576000816000905550600101620002ef565b5090565b6000604051905090565b600080fd5b600080fd5b600080fd5b600080fd5b6000601f19601f8301169050919050565b7f4e487b7100000000000000000000000000000000000000000000000000000000600052604160045260246000fd5b62000376826200032b565b810181811067ffffffffffffffff821117156200039857620003976200033c565b5b80604052505050565b6000620003ad6200030d565b9050620003bb82826200036b565b919050565b600067ffffffffffffffff821115620003de57620003dd6200033c565b5b620003e9826200032b565b9050602081019050919050565b60005b8381101562000416578082015181840152602081019050620003f9565b8381111562000426576000848401525b50505050565b6000620004436200043d84620003c0565b620003a1565b90508281526020810184848401111562000462576200046162000326565b5b6200046f848285620003f6565b509392505050565b600082601f8301126200048f576200048e62000321565b5b8151620004a18482602086016200042c565b91505092915050565b600080600060608486031215620004c657620004c562000317565b5b600084015167ffffffffffffffff811115620004e757620004e66200031c565b5b620004f58682870162000477565b935050602084015167ffffffffffffffff8111156200051957620005186200031c565b5b620005278682870162000477565b925050604084015167ffffffffffffffff8111156200054b576200054a6200031c565b5b620005598682870162000477565b9150509250925092565b600082825260208201905092915050565b7f4552433136353a20696e76616c696420696e7465726661636520696400000000600082015250565b6000620005ac601c8362000563565b9150620005b98262000574565b602082019050919050565b60006020820190508181036000830152620005df816200059d565b9050919050565b600081519050919050565b6000620005fe82620005e6565b6200060a818562000563565b93506200061c818560208601620003f6565b62000627816200032b565b840191505092915050565b600060208201905081810360008301526200064e8184620005f1565b905092915050565b7f4e487b7100000000000000000000000000000000000000000000000000000000600052602260045260246000fd5b600060028204905060018216806200069e57607f821691505b60208210811415620006b557620006b462000656565b5b50919050565b61431f80620006cb6000396000f3fe608060405234801561001057600080fd5b50600436106101735760003560e01c80636c0360eb116100de578063b88d4fde11610097578063c87b56dd11610071578063c87b56dd14610482578063d082e381146104b2578063d48e638a146104d0578063e985e9c51461050057610173565b8063b88d4fde14610406578063c57dc23514610422578063c7ed93f21461045257610173565b80636c0360eb146103305780636fdc202f1461034e57806370a082311461037e5780638da5cb5b146103ae57806395d89b41146103cc578063a22cb465146103ea57610173565b80632f745c59116101305780632f745c591461024c57806342842e0e1461027c57806342966c68146102985780634f6ccce7146102b457806355f804b3146102e45780636352211e1461030057610173565b806301ffc9a71461017857806306fdde03146101a8578063081812fc146101c6578063095ea7b3146101f657806318160ddd1461021257806323b872dd14610230575b600080fd5b610192600480360381019061018d919061292f565b610530565b60405161019f9190612977565b60405180910390f35b6101b0610597565b6040516101bd9190612a2b565b60405180910390f35b6101e060048036038101906101db9190612a83565b610629565b6040516101ed9190612af1565b60405180910390f35b610210600480360381019061020b9190612b38565b6106ae565b005b61021a6107c6565b6040516102279190612b87565b60405180910390f35b61024a60048036038101906102459190612ba2565b6107d7565b005b61026660048036038101906102619190612b38565b610837565b6040516102739190612b87565b60405180910390f35b61029660048036038101906102919190612ba2565b610892565b005b6102b260048036038101906102ad9190612a83565b6108b2565b005b6102ce60048036038101906102c99190612a83565b610906565b6040516102db9190612b87565b60405180910390f35b6102fe60048036038101906102f99190612d2a565b610929565b005b61031a60048036038101906103159190612a83565b6109c5565b6040516103279190612af1565b60405180910390f35b6103386109fc565b6040516103459190612a2b565b60405180910390f35b61036860048036038101906103639190612d73565b610a8e565b6040516103759190612977565b60405180910390f35b61039860048036038101906103939190612d73565b610bda565b6040516103a59190612b87565b60405180910390f35b6103b6610c99565b6040516103c39190612af1565b60405180910390f35b6103d4610cbf565b6040516103e19190612a2b565b60405180910390f35b61040460048036038101906103ff9190612dcc565b610d51565b005b610420600480360381019061041b9190612ead565b610ed2565b005b61043c60048036038101906104379190612a83565b610f34565b6040516104499190612b87565b60405180910390f35b61046c60048036038101906104679190613008565b610f51565b6040516104799190612b87565b60405180910390f35b61049c60048036038101906104979190612a83565b610f98565b6040516104a99190612a2b565b60405180910390f35b6104ba61110b565b6040516104c79190612b87565b60405180910390f35b6104ea60048036038101906104e59190612a83565b611111565b6040516104f79190612af1565b60405180910390f35b61051a60048036038101906105159190613077565b61114e565b6040516105279190612977565b60405180910390f35b6000806000837bffffffffffffffffffffffffffffffffffffffffffffffffffffffff19167bffffffffffffffffffffffffffffffffffffffffffffffffffffffff1916815260200190815260200160002060009054906101000a900460ff169050919050565b6060600680546105a6906130e6565b80601f01602080910402602001604051908101604052809291908181526020018280546105d2906130e6565b801561061f5780601f106105f45761010080835404028352916020019161061f565b820191906000526020600020905b81548152906001019060200180831161060257829003601f168201915b5050505050905090565b6000610634826111e2565b610673576040517f08c379a000000000000000000000000000000000000000000000000000000000815260040161066a9061318a565b60405180910390fd5b6004600083815260200190815260200160002060009054906101000a900473ffffffffffffffffffffffffffffffffffffffff169050919050565b60006106b9826109c5565b90508073ffffffffffffffffffffffffffffffffffffffff168373ffffffffffffffffffffffffffffffffffffffff16141561072a576040517f08c379a00000000000000000000000000000000000000000000000000000000081526004016107219061321c565b60405180910390fd5b8073ffffffffffffffffffffffffffffffffffffffff166107496111ff565b73ffffffffffffffffffffffffffffffffffffffff1614806107785750610777816107726111ff565b61114e565b5b6107b7576040517f08c379a00000000000000000000000000000000000000000000000000000000081526004016107ae906132ae565b60405180910390fd5b6107c18383611207565b505050565b60006107d260026112c0565b905090565b6107e86107e26111ff565b826112d5565b610827576040517f08c379a000000000000000000000000000000000000000000000000000000000815260040161081e90613340565b60405180910390fd5b6108328383836113b3565b505050565b600061088a82600160008673ffffffffffffffffffffffffffffffffffffffff1673ffffffffffffffffffffffffffffffffffffffff1681526020019081526020016000206115ca90919063ffffffff16565b905092915050565b6108ad83838360405180602001604052806000815250610ed2565b505050565b6108bb816111e2565b6108fa576040517f08c379a00000000000000000000000000000000000000000000000000000000081526004016108f1906133ac565b60405180910390fd5b610903816115e4565b50565b60008061091d83600261178c90919063ffffffff16565b50905080915050919050565b3373ffffffffffffffffffffffffffffffffffffffff16600d60009054906101000a900473ffffffffffffffffffffffffffffffffffffffff1673ffffffffffffffffffffffffffffffffffffffff16146109b9576040517f08c379a00000000000000000000000000000000000000000000000000000000081526004016109b090613418565b60405180910390fd5b6109c2816117b8565b50565b60006109f5826040518060600160405280602981526020016142c16029913960026118099092919063ffffffff16565b9050919050565b6060600b8054610a0b906130e6565b80601f0160208091040260200160405190810160405280929190818152602001828054610a37906130e6565b8015610a845780601f10610a5957610100808354040283529160200191610a84565b820191906000526020600020905b815481529060010190602001808311610a6757829003601f168201915b5050505050905090565b60003373ffffffffffffffffffffffffffffffffffffffff16600d60009054906101000a900473ffffffffffffffffffffffffffffffffffffffff1673ffffffffffffffffffffffffffffffffffffffff1614610b20576040517f08c379a0000000000000000000000000000000000000000000000000000000008152600401610b1790613418565b60405180910390fd5b600073ffffffffffffffffffffffffffffffffffffffff168273ffffffffffffffffffffffffffffffffffffffff161415610b90576040517f08c379a0000000000000000000000000000000000000000000000000000000008152600401610b87906134aa565b60405180910390fd5b81600d60006101000a81548173ffffffffffffffffffffffffffffffffffffffff021916908373ffffffffffffffffffffffffffffffffffffffff16021790555060019050919050565b60008073ffffffffffffffffffffffffffffffffffffffff168273ffffffffffffffffffffffffffffffffffffffff161415610c4b576040517f08c379a0000000000000000000000000000000000000000000000000000000008152600401610c429061353c565b60405180910390fd5b610c92600160008473ffffffffffffffffffffffffffffffffffffffff1673ffffffffffffffffffffffffffffffffffffffff168152602001908152602001600020611828565b9050919050565b600d60009054906101000a900473ffffffffffffffffffffffffffffffffffffffff1681565b606060078054610cce906130e6565b80601f0160208091040260200160405190810160405280929190818152602001828054610cfa906130e6565b8015610d475780601f10610d1c57610100808354040283529160200191610d47565b820191906000526020600020905b815481529060010190602001808311610d2a57829003601f168201915b5050505050905090565b610d596111ff565b73ffffffffffffffffffffffffffffffffffffffff168273ffffffffffffffffffffffffffffffffffffffff161415610dc7576040517f08c379a0000000000000000000000000000000000000000000000000000000008152600401610dbe906135a8565b60405180910390fd5b8060056000610dd46111ff565b73ffffffffffffffffffffffffffffffffffffffff1673ffffffffffffffffffffffffffffffffffffffff16815260200190815260200160002060008473ffffffffffffffffffffffffffffffffffffffff1673ffffffffffffffffffffffffffffffffffffffff16815260200190815260200160002060006101000a81548160ff0219169083151502179055508173ffffffffffffffffffffffffffffffffffffffff16610e816111ff565b73ffffffffffffffffffffffffffffffffffffffff167f17307eab39ab6107e8899845ad3d59bd9653f200f220920489ca2b5937696c3183604051610ec69190612977565b60405180910390a35050565b610ee3610edd6111ff565b836112d5565b610f22576040517f08c379a0000000000000000000000000000000000000000000000000000000008152600401610f1990613340565b60405180910390fd5b610f2e8484848461183d565b50505050565b600060096000838152602001908152602001600020549050919050565b600080600c549050610f638584611899565b610f6e3382866119db565b610f7881866119fb565b6001600c54610f8791906135f7565b600c81905550809150509392505050565b6060610fa3826111e2565b610fe2576040517f08c379a0000000000000000000000000000000000000000000000000000000008152600401610fd9906136bf565b60405180910390fd5b6000600860008481526020019081526020016000208054611002906130e6565b80601f016020809104026020016040519081016040528092919081815260200182805461102e906130e6565b801561107b5780601f106110505761010080835404028352916020019161107b565b820191906000526020600020905b81548152906001019060200180831161105e57829003601f168201915b50505050509050600061108c6109fc565b90506000815114156110a2578192505050611106565b6000825111156110d75780826040516020016110bf92919061371b565b60405160208183030381529060405292505050611106565b806110e185611aa7565b6040516020016110f292919061371b565b604051602081830303815290604052925050505b919050565b600c5481565b6000600a600083815260200190815260200160002060009054906101000a900473ffffffffffffffffffffffffffffffffffffffff169050919050565b6000600560008473ffffffffffffffffffffffffffffffffffffffff1673ffffffffffffffffffffffffffffffffffffffff16815260200190815260200160002060008373ffffffffffffffffffffffffffffffffffffffff1673ffffffffffffffffffffffffffffffffffffffff16815260200190815260200160002060009054906101000a900460ff16905092915050565b60006111f8826002611c1a90919063ffffffff16565b9050919050565b600033905090565b816004600083815260200190815260200160002060006101000a81548173ffffffffffffffffffffffffffffffffffffffff021916908373ffffffffffffffffffffffffffffffffffffffff160217905550808273ffffffffffffffffffffffffffffffffffffffff1661127a836109c5565b73ffffffffffffffffffffffffffffffffffffffff167f8c5be1e5ebec7d5bd14f71427d1e84f3dd0314c0f7b2291e5b200ac8c7c3b92560405160405180910390a45050565b60006112ce82600001611c34565b9050919050565b60006112e0826111e2565b61131f576040517f08c379a0000000000000000000000000000000000000000000000000000000008152600401611316906137b1565b60405180910390fd5b600061132a836109c5565b90508073ffffffffffffffffffffffffffffffffffffffff168473ffffffffffffffffffffffffffffffffffffffff16148061139957508373ffffffffffffffffffffffffffffffffffffffff1661138184610629565b73ffffffffffffffffffffffffffffffffffffffff16145b806113aa57506113a9818561114e565b5b91505092915050565b8273ffffffffffffffffffffffffffffffffffffffff166113d3826109c5565b73ffffffffffffffffffffffffffffffffffffffff1614611429576040517f08c379a000000000000000000000000000000000000000000000000000000000815260040161142090613843565b60405180910390fd5b600073ffffffffffffffffffffffffffffffffffffffff168273ffffffffffffffffffffffffffffffffffffffff161415611499576040517f08c379a0000000000000000000000000000000000000000000000000000000008152600401611490906138d5565b60405180910390fd5b6114a4838383611c45565b6114af600082611207565b61150081600160008673ffffffffffffffffffffffffffffffffffffffff1673ffffffffffffffffffffffffffffffffffffffff168152602001908152602001600020611c4a90919063ffffffff16565b5061155281600160008573ffffffffffffffffffffffffffffffffffffffff1673ffffffffffffffffffffffffffffffffffffffff168152602001908152602001600020611c6490919063ffffffff16565b5061156981836002611c7e9092919063ffffffff16565b50808273ffffffffffffffffffffffffffffffffffffffff168473ffffffffffffffffffffffffffffffffffffffff167fddf252ad1be2c89b69c2b068fc378daa952ba7f163c4a11628f55a4df523b3ef60405160405180910390a4505050565b60006115d98360000183611cb3565b60001c905092915050565b6115ed816109c5565b73ffffffffffffffffffffffffffffffffffffffff163373ffffffffffffffffffffffffffffffffffffffff161461165a576040517f08c379a000000000000000000000000000000000000000000000000000000000815260040161165190613941565b60405180910390fd5b6000611665826109c5565b905061167381600084611c45565b61167e600083611207565b600060086000848152602001908152602001600020805461169e906130e6565b9050146116c5576008600083815260200190815260200160002060006116c491906127e0565b5b61171682600160008473ffffffffffffffffffffffffffffffffffffffff1673ffffffffffffffffffffffffffffffffffffffff168152602001908152602001600020611c4a90919063ffffffff16565b5061172b826002611d2790919063ffffffff16565b5081600073ffffffffffffffffffffffffffffffffffffffff168273ffffffffffffffffffffffffffffffffffffffff167fddf252ad1be2c89b69c2b068fc378daa952ba7f163c4a11628f55a4df523b3ef60405160405180910390a45050565b60008060008061179f8660000186611d41565b915091508160001c8160001c9350935050509250929050565b80600b90805190602001906117ce929190612820565b507f5514cc7324ac64a875ba50a1849367d39c8b030fe0f563c3c7142984552bc306816040516117fe9190612a2b565b60405180910390a150565b600061181c846000018460001b84611dcb565b60001c90509392505050565b600061183682600001611e6c565b9050919050565b6118488484846113b3565b61185484848484611e7d565b611893576040517f08c379a000000000000000000000000000000000000000000000000000000000815260040161188a906139d3565b60405180910390fd5b50505050565b600030836040516020016118ae929190613a8b565b6040516020818303038152906040528051906020012090506001816040516020016118d99190613b20565b604051602081830303815290604052805190602001208360000151846020015185604001516040516000815260200160405260405161191b9493929190613b64565b6020604051602081039080840390855afa15801561193d573d6000803e3d6000fd5b5050506020604051035173ffffffffffffffffffffffffffffffffffffffff16600d60009054906101000a900473ffffffffffffffffffffffffffffffffffffffff1673ffffffffffffffffffffffffffffffffffffffff16146119d6576040517f08c379a00000000000000000000000000000000000000000000000000000000081526004016119cd90613bf5565b60405180910390fd5b505050565b6119f683838360405180602001604052806000815250611fe1565b505050565b611a04826111e2565b611a43576040517f08c379a0000000000000000000000000000000000000000000000000000000008152600401611a3a90613c87565b60405180910390fd5b80600860008481526020019081526020016000209080519060200190611a6a929190612820565b50817f6bb7ff708619ba0610cba295a58592e0451dee2622938c8755667688daf3529b82604051611a9b9190612a2b565b60405180910390a25050565b60606000821415611aef576040518060400160405280600181526020017f30000000000000000000000000000000000000000000000000000000000000008152509050611c15565b600082905060005b60008214611b21578080611b0a90613ca7565b915050600a82611b1a9190613d1f565b9150611af7565b60008167ffffffffffffffff811115611b3d57611b3c612bff565b5b6040519080825280601f01601f191660200182016040528015611b6f5781602001600182028036833780820191505090505b5090506000600183611b819190613d50565b90508593505b60008414611c0d57600a84611b9c9190613d84565b6030611ba891906135f7565b60f81b828280611bb790613db5565b935081518110611bca57611bc9613ddf565b5b60200101907effffffffffffffffffffffffffffffffffffffffffffffffffffffffffffff1916908160001a905350600a84611c069190613d1f565b9350611b87565b819450505050505b919050565b6000611c2c836000018360001b61203e565b905092915050565b600081600001805490509050919050565b505050565b6000611c5c836000018360001b612061565b905092915050565b6000611c76836000018360001b612179565b905092915050565b6000611caa846000018460001b8473ffffffffffffffffffffffffffffffffffffffff1660001b6121e9565b90509392505050565b600081836000018054905011611cfe576040517f08c379a0000000000000000000000000000000000000000000000000000000008152600401611cf590613e80565b60405180910390fd5b826000018281548110611d1457611d13613ddf565b5b9060005260206000200154905092915050565b6000611d39836000018360001b6122d5565b905092915050565b60008082846000018054905011611d8d576040517f08c379a0000000000000000000000000000000000000000000000000000000008152600401611d8490613f12565b60405180910390fd5b6000846000018481548110611da557611da4613ddf565b5b906000526020600020906002020190508060000154816001015492509250509250929050565b60008084600101600085815260200190815260200160002054905060008114158390611e2d576040517f08c379a0000000000000000000000000000000000000000000000000000000008152600401611e249190612a2b565b60405180910390fd5b5084600001600182611e3f9190613d50565b81548110611e5057611e4f613ddf565b5b9060005260206000209060020201600101549150509392505050565b600081600001805490509050919050565b6000611e9e8473ffffffffffffffffffffffffffffffffffffffff1661241e565b611eab5760019050611fd9565b6000611f7263150b7a0260e01b611ec06111ff565b888787604051602401611ed69493929190613fa8565b604051602081830303815290604052907bffffffffffffffffffffffffffffffffffffffffffffffffffffffff19166020820180517bffffffffffffffffffffffffffffffffffffffffffffffffffffffff838183161783525050505060405180606001604052806032815260200161428f603291398773ffffffffffffffffffffffffffffffffffffffff166124319092919063ffffffff16565b9050600081806020019051810190611f8a9190614009565b905063150b7a0260e01b7bffffffffffffffffffffffffffffffffffffffffffffffffffffffff1916817bffffffffffffffffffffffffffffffffffffffffffffffffffffffff191614925050505b949350505050565b611fec848484612449565b611ff96000858584611e7d565b612038576040517f08c379a000000000000000000000000000000000000000000000000000000000815260040161202f906139d3565b60405180910390fd5b50505050565b600080836001016000848152602001908152602001600020541415905092915050565b6000808360010160008481526020019081526020016000205490506000811461216d5760006001826120939190613d50565b90506000600186600001805490506120ab9190613d50565b905060008660000182815481106120c5576120c4613ddf565b5b90600052602060002001549050808760000184815481106120e9576120e8613ddf565b5b906000526020600020018190555060018361210491906135f7565b876001016000838152602001908152602001600020819055508660000180548061213157612130614036565b5b60019003818190600052602060002001600090559055866001016000878152602001908152602001600020600090556001945050505050612173565b60009150505b92915050565b60006121858383612642565b6121de5782600001829080600181540180825580915050600190039060005260206000200160009091909190915055826000018054905083600101600084815260200190815260200160002081905550600190506121e3565b600090505b92915050565b6000808460010160008581526020019081526020016000205490506000811415612290578460000160405180604001604052808681526020018581525090806001815401808255809150506001900390600052602060002090600202016000909190919091506000820151816000015560208201518160010155505084600001805490508560010160008681526020019081526020016000208190555060019150506122ce565b82856000016001836122a29190613d50565b815481106122b3576122b2613ddf565b5b90600052602060002090600202016001018190555060009150505b9392505050565b600080836001016000848152602001908152602001600020549050600081146124125760006001826123079190613d50565b905060006001866000018054905061231f9190613d50565b9050600086600001828154811061233957612338613ddf565b5b90600052602060002090600202019050808760000184815481106123605761235f613ddf565b5b9060005260206000209060020201600082015481600001556001820154816001015590505060018361239291906135f7565b8760010160008360000154815260200190815260200160002081905550866000018054806123c3576123c2614036565b5b6001900381819060005260206000209060020201600080820160009055600182016000905550509055866001016000878152602001908152602001600020600090556001945050505050612418565b60009150505b92915050565b600080823b905060008111915050919050565b60606124408484600085612665565b90509392505050565b600073ffffffffffffffffffffffffffffffffffffffff168373ffffffffffffffffffffffffffffffffffffffff1614156124b9576040517f08c379a00000000000000000000000000000000000000000000000000000000081526004016124b0906140b1565b60405180910390fd5b6124c2826111e2565b15612502576040517f08c379a00000000000000000000000000000000000000000000000000000000081526004016124f99061411d565b60405180910390fd5b61250e60008484611c45565b61255f82600160008673ffffffffffffffffffffffffffffffffffffffff1673ffffffffffffffffffffffffffffffffffffffff168152602001908152602001600020611c6490919063ffffffff16565b5061257682846002611c7e9092919063ffffffff16565b5033600a600084815260200190815260200160002060006101000a81548173ffffffffffffffffffffffffffffffffffffffff021916908373ffffffffffffffffffffffffffffffffffffffff160217905550806009600084815260200190815260200160002081905550818373ffffffffffffffffffffffffffffffffffffffff16600073ffffffffffffffffffffffffffffffffffffffff167fddf252ad1be2c89b69c2b068fc378daa952ba7f163c4a11628f55a4df523b3ef60405160405180910390a4505050565b600080836001016000848152602001908152602001600020541415905092915050565b6060824710156126aa576040517f08c379a00000000000000000000000000000000000000000000000000000000081526004016126a1906141af565b60405180910390fd5b6126b38561241e565b6126f2576040517f08c379a00000000000000000000000000000000000000000000000000000000081526004016126e99061421b565b60405180910390fd5b6000808673ffffffffffffffffffffffffffffffffffffffff16858760405161271b9190614277565b60006040518083038185875af1925050503d8060008114612758576040519150601f19603f3d011682016040523d82523d6000602084013e61275d565b606091505b509150915061276d828286612779565b92505050949350505050565b60608315612789578290506127d9565b60008351111561279c5782518084602001fd5b816040517f08c379a00000000000000000000000000000000000000000000000000000000081526004016127d09190612a2b565b60405180910390fd5b9392505050565b5080546127ec906130e6565b6000825580601f106127fe575061281d565b601f01602090049060005260206000209081019061281c91906128a6565b5b50565b82805461282c906130e6565b90600052602060002090601f01602090048101928261284e5760008555612895565b82601f1061286757805160ff1916838001178555612895565b82800160010185558215612895579182015b82811115612894578251825591602001919060010190612879565b5b5090506128a291906128a6565b5090565b5b808211156128bf5760008160009055506001016128a7565b5090565b6000604051905090565b600080fd5b600080fd5b60007fffffffff0000000000000000000000000000000000000000000000000000000082169050919050565b61290c816128d7565b811461291757600080fd5b50565b60008135905061292981612903565b92915050565b600060208284031215612945576129446128cd565b5b60006129538482850161291a565b91505092915050565b60008115159050919050565b6129718161295c565b82525050565b600060208201905061298c6000830184612968565b92915050565b600081519050919050565b600082825260208201905092915050565b60005b838110156129cc5780820151818401526020810190506129b1565b838111156129db576000848401525b50505050565b6000601f19601f8301169050919050565b60006129fd82612992565b612a07818561299d565b9350612a178185602086016129ae565b612a20816129e1565b840191505092915050565b60006020820190508181036000830152612a4581846129f2565b905092915050565b6000819050919050565b612a6081612a4d565b8114612a6b57600080fd5b50565b600081359050612a7d81612a57565b92915050565b600060208284031215612a9957612a986128cd565b5b6000612aa784828501612a6e565b91505092915050565b600073ffffffffffffffffffffffffffffffffffffffff82169050919050565b6000612adb82612ab0565b9050919050565b612aeb81612ad0565b82525050565b6000602082019050612b066000830184612ae2565b92915050565b612b1581612ad0565b8114612b2057600080fd5b50565b600081359050612b3281612b0c565b92915050565b60008060408385031215612b4f57612b4e6128cd565b5b6000612b5d85828601612b23565b9250506020612b6e85828601612a6e565b9150509250929050565b612b8181612a4d565b82525050565b6000602082019050612b9c6000830184612b78565b92915050565b600080600060608486031215612bbb57612bba6128cd565b5b6000612bc986828701612b23565b9350506020612bda86828701612b23565b9250506040612beb86828701612a6e565b9150509250925092565b600080fd5b600080fd5b7f4e487b7100000000000000000000000000000000000000000000000000000000600052604160045260246000fd5b612c37826129e1565b810181811067ffffffffffffffff82111715612c5657612c55612bff565b5b80604052505050565b6000612c696128c3565b9050612c758282612c2e565b919050565b600067ffffffffffffffff821115612c9557612c94612bff565b5b612c9e826129e1565b9050602081019050919050565b82818337600083830152505050565b6000612ccd612cc884612c7a565b612c5f565b905082815260208101848484011115612ce957612ce8612bfa565b5b612cf4848285612cab565b509392505050565b600082601f830112612d1157612d10612bf5565b5b8135612d21848260208601612cba565b91505092915050565b600060208284031215612d4057612d3f6128cd565b5b600082013567ffffffffffffffff811115612d5e57612d5d6128d2565b5b612d6a84828501612cfc565b91505092915050565b600060208284031215612d8957612d886128cd565b5b6000612d9784828501612b23565b91505092915050565b612da98161295c565b8114612db457600080fd5b50565b600081359050612dc681612da0565b92915050565b60008060408385031215612de357612de26128cd565b5b6000612df185828601612b23565b9250506020612e0285828601612db7565b9150509250929050565b600067ffffffffffffffff821115612e2757612e26612bff565b5b612e30826129e1565b9050602081019050919050565b6000612e50612e4b84612e0c565b612c5f565b905082815260208101848484011115612e6c57612e6b612bfa565b5b612e77848285612cab565b509392505050565b600082601f830112612e9457612e93612bf5565b5b8135612ea4848260208601612e3d565b91505092915050565b60008060008060808587031215612ec757612ec66128cd565b5b6000612ed587828801612b23565b9450506020612ee687828801612b23565b9350506040612ef787828801612a6e565b925050606085013567ffffffffffffffff811115612f1857612f176128d2565b5b612f2487828801612e7f565b91505092959194509250565b600080fd5b600060ff82169050919050565b612f4b81612f35565b8114612f5657600080fd5b50565b600081359050612f6881612f42565b92915050565b6000819050919050565b612f8181612f6e565b8114612f8c57600080fd5b50565b600081359050612f9e81612f78565b92915050565b600060608284031215612fba57612fb9612f30565b5b612fc46060612c5f565b90506000612fd484828501612f59565b6000830152506020612fe884828501612f8f565b6020830152506040612ffc84828501612f8f565b60408301525092915050565b600080600060a08486031215613021576130206128cd565b5b600084013567ffffffffffffffff81111561303f5761303e6128d2565b5b61304b86828701612cfc565b935050602061305c86828701612a6e565b925050604061306d86828701612fa4565b9150509250925092565b6000806040838503121561308e5761308d6128cd565b5b600061309c85828601612b23565b92505060206130ad85828601612b23565b9150509250929050565b7f4e487b7100000000000000000000000000000000000000000000000000000000600052602260045260246000fd5b600060028204905060018216806130fe57607f821691505b60208210811415613112576131116130b7565b5b50919050565b7f4552433732313a20617070726f76656420717565727920666f72206e6f6e657860008201527f697374656e7420746f6b656e0000000000000000000000000000000000000000602082015250565b6000613174602c8361299d565b915061317f82613118565b604082019050919050565b600060208201905081810360008301526131a381613167565b9050919050565b7f4552433732313a20617070726f76616c20746f2063757272656e74206f776e6560008201527f7200000000000000000000000000000000000000000000000000000000000000602082015250565b600061320660218361299d565b9150613211826131aa565b604082019050919050565b60006020820190508181036000830152613235816131f9565b9050919050565b7f4552433732313a20617070726f76652063616c6c6572206973206e6f74206f7760008201527f6e6572206e6f7220617070726f76656420666f7220616c6c0000000000000000602082015250565b600061329860388361299d565b91506132a38261323c565b604082019050919050565b600060208201905081810360008301526132c78161328b565b9050919050565b7f4552433732313a207472616e736665722063616c6c6572206973206e6f74206f60008201527f776e6572206e6f7220617070726f766564000000000000000000000000000000602082015250565b600061332a60318361299d565b9150613335826132ce565b604082019050919050565b600060208201905081810360008301526133598161331d565b9050919050565b7f4552433732313a206e6f6e6578697374656e7420746f6b656e00000000000000600082015250565b600061339660198361299d565b91506133a182613360565b602082019050919050565b600060208201905081810360008301526133c581613389565b9050919050565b7f4f776e61626c653a2063616c6c6572206973206e6f7420746865206f776e6572600082015250565b600061340260208361299d565b915061340d826133cc565b602082019050919050565b60006020820190508181036000830152613431816133f5565b9050919050565b7f4f776e61626c653a206e6577206f776e657220697320746865207a65726f206160008201527f6464726573730000000000000000000000000000000000000000000000000000602082015250565b600061349460268361299d565b915061349f82613438565b604082019050919050565b600060208201905081810360008301526134c381613487565b9050919050565b7f4552433732313a2062616c616e636520717565727920666f7220746865207a6560008201527f726f206164647265737300000000000000000000000000000000000000000000602082015250565b6000613526602a8361299d565b9150613531826134ca565b604082019050919050565b6000602082019050818103600083015261355581613519565b9050919050565b7f4552433732313a20617070726f766520746f2063616c6c657200000000000000600082015250565b600061359260198361299d565b915061359d8261355c565b602082019050919050565b600060208201905081810360008301526135c181613585565b9050919050565b7f4e487b7100000000000000000000000000000000000000000000000000000000600052601160045260246000fd5b600061360282612a4d565b915061360d83612a4d565b9250827fffffffffffffffffffffffffffffffffffffffffffffffffffffffffffffffff03821115613642576136416135c8565b5b828201905092915050565b7f4552433732314d657461646174613a2055524920717565727920666f72206e6f60008201527f6e6578697374656e7420746f6b656e0000000000000000000000000000000000602082015250565b60006136a9602f8361299d565b91506136b48261364d565b604082019050919050565b600060208201905081810360008301526136d88161369c565b9050919050565b600081905092915050565b60006136f582612992565b6136ff81856136df565b935061370f8185602086016129ae565b80840191505092915050565b600061372782856136ea565b915061373382846136ea565b91508190509392505050565b7f4552433732313a206f70657261746f7220717565727920666f72206e6f6e657860008201527f697374656e7420746f6b656e0000000000000000000000000000000000000000602082015250565b600061379b602c8361299d565b91506137a68261373f565b604082019050919050565b600060208201905081810360008301526137ca8161378e565b9050919050565b7f4552433732313a207472616e73666572206f6620746f6b656e2074686174206960008201527f73206e6f74206f776e0000000000000000000000000000000000000000000000602082015250565b600061382d60298361299d565b9150613838826137d1565b604082019050919050565b6000602082019050818103600083015261385c81613820565b9050919050565b7f4552433732313a207472616e7366657220746f20746865207a65726f2061646460008201527f7265737300000000000000000000000000000000000000000000000000000000602082015250565b60006138bf60248361299d565b91506138ca82613863565b604082019050919050565b600060208201905081810360008301526138ee816138b2565b9050919050565b7f63616c6c6572206e6f74206f776e657200000000000000000000000000000000600082015250565b600061392b60108361299d565b9150613936826138f5565b602082019050919050565b6000602082019050818103600083015261395a8161391e565b9050919050565b7f4552433732313a207472616e7366657220746f206e6f6e20455243373231526560008201527f63656976657220696d706c656d656e7465720000000000000000000000000000602082015250565b60006139bd60328361299d565b91506139c882613961565b604082019050919050565b600060208201905081810360008301526139ec816139b0565b9050919050565b6000819050919050565b6000613a18613a13613a0e84612ab0565b6139f3565b612ab0565b9050919050565b6000613a2a826139fd565b9050919050565b6000613a3c82613a1f565b9050919050565b60008160601b9050919050565b6000613a5b82613a43565b9050919050565b6000613a6d82613a50565b9050919050565b613a85613a8082613a31565b613a62565b82525050565b6000613a978285613a74565b601482019150613aa782846136ea565b91508190509392505050565b7f19457468657265756d205369676e6564204d6573736167653a0a333200000000600082015250565b6000613ae9601c836136df565b9150613af482613ab3565b601c82019050919050565b6000819050919050565b613b1a613b1582612f6e565b613aff565b82525050565b6000613b2b82613adc565b9150613b378284613b09565b60208201915081905092915050565b613b4f81612f6e565b82525050565b613b5e81612f35565b82525050565b6000608082019050613b796000830187613b46565b613b866020830186613b55565b613b936040830185613b46565b613ba06060830184613b46565b95945050505050565b7f4f776e6572207369676e20766572696669636174696f6e206661696c65640000600082015250565b6000613bdf601e8361299d565b9150613bea82613ba9565b602082019050919050565b60006020820190508181036000830152613c0e81613bd2565b9050919050565b7f4552433732314d657461646174613a2055524920736574206f66206e6f6e657860008201527f697374656e7420746f6b656e0000000000000000000000000000000000000000602082015250565b6000613c71602c8361299d565b9150613c7c82613c15565b604082019050919050565b60006020820190508181036000830152613ca081613c64565b9050919050565b6000613cb282612a4d565b91507fffffffffffffffffffffffffffffffffffffffffffffffffffffffffffffffff821415613ce557613ce46135c8565b5b600182019050919050565b7f4e487b7100000000000000000000000000000000000000000000000000000000600052601260045260246000fd5b6000613d2a82612a4d565b9150613d3583612a4d565b925082613d4557613d44613cf0565b5b828204905092915050565b6000613d5b82612a4d565b9150613d6683612a4d565b925082821015613d7957613d786135c8565b5b828203905092915050565b6000613d8f82612a4d565b9150613d9a83612a4d565b925082613daa57613da9613cf0565b5b828206905092915050565b6000613dc082612a4d565b91506000821415613dd457613dd36135c8565b5b600182039050919050565b7f4e487b7100000000000000000000000000000000000000000000000000000000600052603260045260246000fd5b7f456e756d657261626c655365743a20696e646578206f7574206f6620626f756e60008201527f6473000000000000000000000000000000000000000000000000000000000000602082015250565b6000613e6a60228361299d565b9150613e7582613e0e565b604082019050919050565b60006020820190508181036000830152613e9981613e5d565b9050919050565b7f456e756d657261626c654d61703a20696e646578206f7574206f6620626f756e60008201527f6473000000000000000000000000000000000000000000000000000000000000602082015250565b6000613efc60228361299d565b9150613f0782613ea0565b604082019050919050565b60006020820190508181036000830152613f2b81613eef565b9050919050565b6000613f3d82612ab0565b9050919050565b613f4d81613f32565b82525050565b600081519050919050565b600082825260208201905092915050565b6000613f7a82613f53565b613f848185613f5e565b9350613f948185602086016129ae565b613f9d816129e1565b840191505092915050565b6000608082019050613fbd6000830187613f44565b613fca6020830186612ae2565b613fd76040830185612b78565b8181036060830152613fe98184613f6f565b905095945050505050565b60008151905061400381612903565b92915050565b60006020828403121561401f5761401e6128cd565b5b600061402d84828501613ff4565b91505092915050565b7f4e487b7100000000000000000000000000000000000000000000000000000000600052603160045260246000fd5b7f4552433732313a206d696e7420746f20746865207a65726f2061646472657373600082015250565b600061409b60208361299d565b91506140a682614065565b602082019050919050565b600060208201905081810360008301526140ca8161408e565b9050919050565b7f4552433732313a20746f6b656e20616c7265616479206d696e74656400000000600082015250565b6000614107601c8361299d565b9150614112826140d1565b602082019050919050565b60006020820190508181036000830152614136816140fa565b9050919050565b7f416464726573733a20696e73756666696369656e742062616c616e636520666f60008201527f722063616c6c0000000000000000000000000000000000000000000000000000602082015250565b600061419960268361299d565b91506141a48261413d565b604082019050919050565b600060208201905081810360008301526141c88161418c565b9050919050565b7f416464726573733a2063616c6c20746f206e6f6e2d636f6e7472616374000000600082015250565b6000614205601d8361299d565b9150614210826141cf565b602082019050919050565b60006020820190508181036000830152614234816141f8565b9050919050565b600081905092915050565b600061425182613f53565b61425b818561423b565b935061426b8185602086016129ae565b80840191505092915050565b60006142838284614246565b91508190509291505056fe4552433732313a207472616e7366657220746f206e6f6e20455243373231526563656976657220696d706c656d656e7465724552433732313a206f776e657220717565727920666f72206e6f6e6578697374656e7420746f6b656ea2646970667358221220caa88a45f920f7e84f9f3bd18748eac5c4d14c495b8cfc0725cfdece92fbe31d64736f6c634300080c0033",
   "immutableReferences": {},
   "source": "// SPDX-License-Identifier:UNLICENSED\npragma solidity ^0.8.4;\n\nimport \"./token/ERC721/ERC721.sol\";\n\ncontract NextPlanet_ERC721 is ERC721 {\n    uint256 public tokenCounter;\n    address public owner;\n\n    struct Sign {\n        uint8 v;\n        bytes32 r;\n        bytes32 s;\n    }\n\n    constructor(\n        string memory name,\n        string memory symbol,\n        string memory tokenURIPrefix\n    ) ERC721(name, symbol) {\n        tokenCounter = 1;\n        owner = msg.sender;\n        _setBaseURI(tokenURIPrefix);\n    }\n\n    modifier onlyOwner() {\n        require(owner == msg.sender, \"Ownable: caller is not the owner\");\n        _;\n    }\n\n    function ownerTransfership(address newOwner)\n        public\n        onlyOwner\n        returns (bool)\n    {\n        require(\n            newOwner != address(0),\n            \"Ownable: new owner is the zero address\"\n        );\n        owner = newOwner;\n        return true;\n    }\n\n    function verifySign(string memory tokenURI, Sign memory sign)\n        internal\n        view\n    {\n        bytes32 hash = keccak256(abi.encodePacked(this, tokenURI));\n        require(\n            owner ==\n                ecrecover(\n                    keccak256(\n                        abi.encodePacked(\n                            \"\\x19Ethereum Signed Message:\\n32\",\n                            hash\n                        )\n                    ),\n                    sign.v,\n                    sign.r,\n                    sign.s\n                ),\n            \"Owner sign verification failed\"\n        );\n    }\n\n    /**\n     * @dev Internal function to mint a new token.\n     * Reverts if the given token ID already exists.\n     * @param sign struct combination of uint8, bytes32, bytes32 are v, r, s.\n     * @param tokenURI string memory URI of the token to be minted.\n     * @param fee uint256 royalty of the token to be minted.\n     */\n\n    function createCollectible(\n        string memory tokenURI,\n        uint256 fee,\n        Sign memory sign\n    ) public returns (uint256) {\n        uint256 newItemId = tokenCounter;\n        verifySign(tokenURI, sign);\n        _safeMint(msg.sender, newItemId, fee);\n        _setTokenURI(newItemId, tokenURI);\n        tokenCounter = tokenCounter + 1;\n        return newItemId;\n    }\n\n    function setBaseURI(string memory _baseURI) public onlyOwner {\n        _setBaseURI(_baseURI);\n    }\n\n    function burn(uint256 tokenId) public {\n        require(_exists(tokenId), \"ERC721: nonexistent token\");\n        _burn(tokenId);\n    }\n}\n",
   "sourcePath": "/Users/iltersag/projects/nextdream/NextPlanet-contracts/contracts/NextPlanet_ERC721.sol",
   "compiler": {
      "name": "solc",
      "version": "0.8.12+commit.f00d7308.Emscripten.clang"
   },
   "schemaVersion": "3.4.5",
   "updatedAt": "2022-04-05T20:38:07.719Z",
   "networkType": "ethereum",
   "devdoc": {
      "kind": "dev",
      "methods": {
         "balanceOf(address)": {
            "params": {
               "owner": "The address of the token holder"
            },
            "returns": {
               "_0": "The account's balance of the Token type requested"
            }
         },
         "createCollectible(string,uint256,(uint8,bytes32,bytes32))": {
            "details": "Internal function to mint a new token. Reverts if the given token ID already exists.",
            "params": {
               "fee": "uint256 royalty of the token to be minted.",
               "sign": "struct combination of uint8, bytes32, bytes32 are v, r, s.",
               "tokenURI": "string memory URI of the token to be minted."
            }
         },
         "isApprovedForAll(address,address)": {
            "params": {
               "operator": "Address of authorized operator",
               "owner": "The owner of the Tokens"
            },
            "returns": {
               "_0": "True if the operator is approved, false if not"
            }
         },
         "ownerOf(uint256)": {
            "params": {
               "tokenId": "The tokenId of the token holder"
            },
            "returns": {
               "_0": "The current owner of the requested tokenId"
            }
         },
         "safeTransferFrom(address,address,uint256,bytes)": {
            "details": "Caller must be approved to manage the tokens being transferred out of the `_from` account (see \"Approval\" section of the standard). MUST revert if `_to` is the zero address. MUST revert if balance of holder for token `_id` is lower than the `_value` sent. MUST revert on any other error. MUST emit the `TransferSingle` event to reflect the balance change (see \"Safe Transfer Rules\" section of the standard). After the above conditions are met, this function MUST check if `_to` is a smart contract (e.g. code size > 0). If so, it MUST call `onERC1155Received` on `_to` and act appropriately (see \"Safe Transfer Rules\" section of the standard).",
            "params": {
               "_data": "Additional data with no specified format, MUST be sent unaltered in call to `onERC1155Received` on `_to`",
               "from": "Source address",
               "to": "Target address",
               "tokenId": "ID of the token type."
            }
         },
         "setApprovalForAll(address,bool)": {
            "details": "MUST emit the ApprovalForAll event on success.",
            "params": {
               "approved": "True if the operator is approved, false to revoke approval",
               "operator": "Address to add to the set of authorized operators"
            }
         },
         "supportsInterface(bytes4)": {
            "details": "Returns true if this contract implements the interface defined by `interfaceId`. See the corresponding https://eips.ethereum.org/EIPS/eip-165#how-interfaces-are-identified[EIP section] to learn more about how these ids are created. This function call must use less than 30 000 gas."
         }
      },
      "version": 1
   },
   "userdoc": {
      "kind": "user",
      "methods": {
         "balanceOf(address)": {
            "notice": "Get the Token balance of an account's."
         },
         "isApprovedForAll(address,address)": {
            "notice": "Queries the approval status of an operator for a given owner."
         },
         "ownerOf(uint256)": {
            "notice": "Get the owner of tokenId."
         },
         "safeTransferFrom(address,address,uint256,bytes)": {
            "notice": "Transfers `_value` amount of an `_id` from the `_from` address to the `_to` address specified (with safety call)."
         },
         "setApprovalForAll(address,bool)": {
            "notice": "Enable or disable approval for a third party (\"operator\") to manage all of the caller's tokens."
         }
      },
      "version": 1
   }
}