{
  "contractName": "Trade",
  "abi": [
    {
      "inputs": [
        {
          "internalType": "uint8",
          "name": "_buyerFee",
          "type": "uint8"
        },
        {
          "internalType": "uint8",
          "name": "_sellerFee",
          "type": "uint8"
        },
        {
          "internalType": "contract TransferProxy",
          "name": "_transferProxy",
          "type": "address"
        }
      ],
      "stateMutability": "nonpayable",
      "type": "constructor"
    },
    {
      "anonymous": false,
      "inputs": [
        {
          "indexed": true,
          "internalType": "address",
          "name": "assetOwner",
          "type": "address"
        },
        {
          "indexed": true,
          "internalType": "uint256",
          "name": "tokenId",
          "type": "uint256"
        },
        {
          "indexed": false,
          "internalType": "uint256",
          "name": "quantity",
          "type": "uint256"
        },
        {
          "indexed": true,
          "internalType": "address",
          "name": "buyer",
          "type": "address"
        }
      ],
      "name": "BuyAsset",
      "type": "event"
    },
    {
      "anonymous": false,
      "inputs": [
        {
          "indexed": false,
          "internalType": "uint8",
          "name": "buyerFee",
          "type": "uint8"
        }
      ],
      "name": "BuyerFee",
      "type": "event"
    },
    {
      "anonymous": false,
      "inputs": [
        {
          "indexed": true,
          "internalType": "address",
          "name": "assetOwner",
          "type": "address"
        },
        {
          "indexed": true,
          "internalType": "uint256",
          "name": "tokenId",
          "type": "uint256"
        },
        {
          "indexed": false,
          "internalType": "uint256",
          "name": "quantity",
          "type": "uint256"
        },
        {
          "indexed": true,
          "internalType": "address",
          "name": "buyer",
          "type": "address"
        }
      ],
      "name": "ExecuteBid",
      "type": "event"
    },
    {
      "anonymous": false,
      "inputs": [
        {
          "indexed": true,
          "internalType": "address",
          "name": "previousOwner",
          "type": "address"
        },
        {
          "indexed": true,
          "internalType": "address",
          "name": "newOwner",
          "type": "address"
        }
      ],
      "name": "OwnershipTransferred",
      "type": "event"
    },
    {
      "anonymous": false,
      "inputs": [
        {
          "indexed": false,
          "internalType": "uint8",
          "name": "sellerFee",
          "type": "uint8"
        }
      ],
      "name": "SellerFee",
      "type": "event"
    },
    {
      "inputs": [],
      "name": "owner",
      "outputs": [
        {
          "internalType": "address",
          "name": "",
          "type": "address"
        }
      ],
      "stateMutability": "view",
      "type": "function",
      "constant": true
    },
    {
      "inputs": [],
      "name": "transferProxy",
      "outputs": [
        {
          "internalType": "contract TransferProxy",
          "name": "",
          "type": "address"
        }
      ],
      "stateMutability": "view",
      "type": "function",
      "constant": true
    },
    {
      "inputs": [],
      "name": "buyerServiceFee",
      "outputs": [
        {
          "internalType": "uint8",
          "name": "",
          "type": "uint8"
        }
      ],
      "stateMutability": "view",
      "type": "function",
      "constant": true
    },
    {
      "inputs": [],
      "name": "sellerServiceFee",
      "outputs": [
        {
          "internalType": "uint8",
          "name": "",
          "type": "uint8"
        }
      ],
      "stateMutability": "view",
      "type": "function",
      "constant": true
    },
    {
      "inputs": [
        {
          "internalType": "uint8",
          "name": "_buyerFee",
          "type": "uint8"
        }
      ],
      "name": "setBuyerServiceFee",
      "outputs": [
        {
          "internalType": "bool",
          "name": "",
          "type": "bool"
        }
      ],
      "stateMutability": "nonpayable",
      "type": "function"
    },
    {
      "inputs": [
        {
          "internalType": "uint8",
          "name": "_sellerFee",
          "type": "uint8"
        }
      ],
      "name": "setSellerServiceFee",
      "outputs": [
        {
          "internalType": "bool",
          "name": "",
          "type": "bool"
        }
      ],
      "stateMutability": "nonpayable",
      "type": "function"
    },
    {
      "inputs": [
        {
          "internalType": "address",
          "name": "newOwner",
          "type": "address"
        }
      ],
      "name": "ownerTransfership",
      "outputs": [
        {
          "internalType": "bool",
          "name": "",
          "type": "bool"
        }
      ],
      "stateMutability": "nonpayable",
      "type": "function"
    },
    {
      "inputs": [
        {
          "components": [
            {
              "internalType": "address",
              "name": "seller",
              "type": "address"
            },
            {
              "internalType": "address",
              "name": "buyer",
              "type": "address"
            },
            {
              "internalType": "address",
              "name": "erc20Address",
              "type": "address"
            },
            {
              "internalType": "address",
              "name": "nftAddress",
              "type": "address"
            },
            {
              "internalType": "enum Trade.BuyingAssetType",
              "name": "nftType",
              "type": "uint8"
            },
            {
              "internalType": "uint256",
              "name": "unitPrice",
              "type": "uint256"
            },
            {
              "internalType": "uint256",
              "name": "amount",
              "type": "uint256"
            },
            {
              "internalType": "uint256",
              "name": "tokenId",
              "type": "uint256"
            },
            {
              "internalType": "uint256",
              "name": "qty",
              "type": "uint256"
            }
          ],
          "internalType": "struct Trade.Order",
          "name": "order",
          "type": "tuple"
        },
        {
          "components": [
            {
              "internalType": "uint8",
              "name": "v",
              "type": "uint8"
            },
            {
              "internalType": "bytes32",
              "name": "r",
              "type": "bytes32"
            },
            {
              "internalType": "bytes32",
              "name": "s",
              "type": "bytes32"
            }
          ],
          "internalType": "struct Trade.Sign",
          "name": "sign",
          "type": "tuple"
        }
      ],
      "name": "buyAsset",
      "outputs": [
        {
          "internalType": "bool",
          "name": "",
          "type": "bool"
        }
      ],
      "stateMutability": "nonpayable",
      "type": "function"
    },
    {
      "inputs": [
        {
          "components": [
            {
              "internalType": "address",
              "name": "seller",
              "type": "address"
            },
            {
              "internalType": "address",
              "name": "buyer",
              "type": "address"
            },
            {
              "internalType": "address",
              "name": "erc20Address",
              "type": "address"
            },
            {
              "internalType": "address",
              "name": "nftAddress",
              "type": "address"
            },
            {
              "internalType": "enum Trade.BuyingAssetType",
              "name": "nftType",
              "type": "uint8"
            },
            {
              "internalType": "uint256",
              "name": "unitPrice",
              "type": "uint256"
            },
            {
              "internalType": "uint256",
              "name": "amount",
              "type": "uint256"
            },
            {
              "internalType": "uint256",
              "name": "tokenId",
              "type": "uint256"
            },
            {
              "internalType": "uint256",
              "name": "qty",
              "type": "uint256"
            }
          ],
          "internalType": "struct Trade.Order",
          "name": "order",
          "type": "tuple"
        },
        {
          "components": [
            {
              "internalType": "uint8",
              "name": "v",
              "type": "uint8"
            },
            {
              "internalType": "bytes32",
              "name": "r",
              "type": "bytes32"
            },
            {
              "internalType": "bytes32",
              "name": "s",
              "type": "bytes32"
            }
          ],
          "internalType": "struct Trade.Sign",
          "name": "sign",
          "type": "tuple"
        }
      ],
      "name": "executeBid",
      "outputs": [
        {
          "internalType": "bool",
          "name": "",
          "type": "bool"
        }
      ],
      "stateMutability": "nonpayable",
      "type": "function"
    }
  ],
  "bytecode": "0x60806040523480156200001157600080fd5b5060405162002532380380620025328339818101604052810190620000379190620001b3565b826000806101000a81548160ff021916908360ff16021790555081600060016101000a81548160ff021916908360ff16021790555080600060026101000a81548173ffffffffffffffffffffffffffffffffffffffff021916908373ffffffffffffffffffffffffffffffffffffffff16021790555033600160006101000a81548173ffffffffffffffffffffffffffffffffffffffff021916908373ffffffffffffffffffffffffffffffffffffffff1602179055505050506200020f565b600080fd5b600060ff82169050919050565b6200011481620000fc565b81146200012057600080fd5b50565b600081519050620001348162000109565b92915050565b600073ffffffffffffffffffffffffffffffffffffffff82169050919050565b600062000167826200013a565b9050919050565b60006200017b826200015a565b9050919050565b6200018d816200016e565b81146200019957600080fd5b50565b600081519050620001ad8162000182565b92915050565b600080600060608486031215620001cf57620001ce620000f7565b5b6000620001df8682870162000123565b9350506020620001f28682870162000123565b925050604062000205868287016200019c565b9150509250925092565b612313806200021f6000396000f3fe608060405234801561001057600080fd5b50600436106100935760003560e01c80638da5cb5b116100665780638da5cb5b146101345780639c66809d14610152578063a3667c7b14610170578063a96b446d146101a0578063f2c2bc76146101d057610093565b806360085da6146100985780636e667db3146100b65780636fdc202f146100d45780637f9118a614610104575b600080fd5b6100a0610200565b6040516100ad91906113fc565b60405180910390f35b6100be610216565b6040516100cb9190611496565b60405180910390f35b6100ee60048036038101906100e991906114fe565b61023c565b6040516100fb9190611546565b60405180910390f35b61011e600480360381019061011991906117f3565b610404565b60405161012b9190611546565b60405180910390f35b61013c610562565b6040516101499190611844565b60405180910390f35b61015a610588565b60405161016791906113fc565b60405180910390f35b61018a6004803603810190610185919061185f565b61059e565b6040516101979190611546565b60405180910390f35b6101ba60048036038101906101b5919061185f565b61069a565b6040516101c79190611546565b60405180910390f35b6101ea60048036038101906101e591906117f3565b610793565b6040516101f79190611546565b60405180910390f35b60008060019054906101000a900460ff16905090565b600060029054906101000a900473ffffffffffffffffffffffffffffffffffffffff1681565b60003373ffffffffffffffffffffffffffffffffffffffff16600160009054906101000a900473ffffffffffffffffffffffffffffffffffffffff1673ffffffffffffffffffffffffffffffffffffffff16146102ce576040517f08c379a00000000000000000000000000000000000000000000000000000000081526004016102c5906118e9565b60405180910390fd5b600073ffffffffffffffffffffffffffffffffffffffff168273ffffffffffffffffffffffffffffffffffffffff16141561033e576040517f08c379a00000000000000000000000000000000000000000000000000000000081526004016103359061197b565b60405180910390fd5b8173ffffffffffffffffffffffffffffffffffffffff16600160009054906101000a900473ffffffffffffffffffffffffffffffffffffffff1673ffffffffffffffffffffffffffffffffffffffff167f8be0079c531659141344cd1fd0a4f28419497f9722a3daafe3b4186f6b6457e060405160405180910390a381600160006101000a81548173ffffffffffffffffffffffffffffffffffffffff021916908373ffffffffffffffffffffffffffffffffffffffff16021790555060019050919050565b6000806104238460c00151856080015186606001518760e0015161089c565b90508361010001518460a0015161043a91906119ca565b81606001511015610480576040517f08c379a000000000000000000000000000000000000000000000000000000000815260040161047790611a70565b60405180910390fd5b6104a284600001518560e001518660a001518760400151886060015188610c4a565b33846020019073ffffffffffffffffffffffffffffffffffffffff16908173ffffffffffffffffffffffffffffffffffffffff16815250506104e48482610cfb565b3373ffffffffffffffffffffffffffffffffffffffff168460e00151856000015173ffffffffffffffffffffffffffffffffffffffff167fb10197cef009fd301a90b892d25451c22c3701eb18ee2df1250d31e514fff39487610100015160405161054f9190611a9f565b60405180910390a4600191505092915050565b600160009054906101000a900473ffffffffffffffffffffffffffffffffffffffff1681565b60008060009054906101000a900460ff16905090565b60003373ffffffffffffffffffffffffffffffffffffffff16600160009054906101000a900473ffffffffffffffffffffffffffffffffffffffff1673ffffffffffffffffffffffffffffffffffffffff1614610630576040517f08c379a0000000000000000000000000000000000000000000000000000000008152600401610627906118e9565b60405180910390fd5b81600060016101000a81548160ff021916908360ff1602179055507f04e959c7352d9eda8a6d989e4fee25ff0bf44c87386b7259d8500343c4e9992e600060019054906101000a900460ff1660405161068991906113fc565b60405180910390a160019050919050565b60003373ffffffffffffffffffffffffffffffffffffffff16600160009054906101000a900473ffffffffffffffffffffffffffffffffffffffff1673ffffffffffffffffffffffffffffffffffffffff161461072c576040517f08c379a0000000000000000000000000000000000000000000000000000000008152600401610723906118e9565b60405180910390fd5b816000806101000a81548160ff021916908360ff1602179055507f1715ed10763088cbfba08a6ecfb6e5894eac73040cb1899d10d3f96ced2bd0ef60008054906101000a900460ff1660405161078291906113fc565b60405180910390a160019050919050565b6000806107b28460c00151856080015186606001518760e0015161089c565b90506107dc84602001518560e001518660c0015187604001518860600151896101000151896110d2565b33846000019073ffffffffffffffffffffffffffffffffffffffff16908173ffffffffffffffffffffffffffffffffffffffff168152505061081e8482610cfb565b836020015173ffffffffffffffffffffffffffffffffffffffff168460e001513373ffffffffffffffffffffffffffffffffffffffff167fec34853c156da04e4792f1c735112ae54e5ed52bac58db5014b26746f306a3628761010001516040516108899190611a9f565b60405180910390a4600191505092915050565b6108a461139b565b6000806000806000806108f560008054906101000a900460ff1660ff166103e86108ce9190611ac8565b61ffff166108e76103e88e61118690919063ffffffff16565b61120190919063ffffffff16565b9050600061090c828d61125990919063ffffffff16565b905060006109496103e861093b600060019054906101000a900460ff1660ff168661118690919063ffffffff16565b61120190919063ffffffff16565b905061095e81836112b290919063ffffffff16565b965060018081111561097357610972611b00565b5b8c600181111561098657610985611b00565b5b1415610a85578a73ffffffffffffffffffffffffffffffffffffffff1663c57dc2358b6040518263ffffffff1660e01b81526004016109c59190611a9f565b602060405180830381865afa1580156109e2573d6000803e3d6000fd5b505050506040513d601f19601f82011682018060405250810190610a069190611b44565b93508a73ffffffffffffffffffffffffffffffffffffffff1663d48e638a8b6040518263ffffffff1660e01b8152600401610a419190611a9f565b602060405180830381865afa158015610a5e573d6000803e3d6000fd5b505050506040513d601f19601f82011682018060405250810190610a829190611b86565b97505b60006001811115610a9957610a98611b00565b5b8c6001811115610aac57610aab611b00565b5b1415610bab578a73ffffffffffffffffffffffffffffffffffffffff1663c57dc2358b6040518263ffffffff1660e01b8152600401610aeb9190611a9f565b602060405180830381865afa158015610b08573d6000803e3d6000fd5b505050506040513d601f19601f82011682018060405250810190610b2c9190611b44565b93508a73ffffffffffffffffffffffffffffffffffffffff1663d48e638a8b6040518263ffffffff1660e01b8152600401610b679190611a9f565b602060405180830381865afa158015610b84573d6000803e3d6000fd5b505050506040513d601f19601f82011682018060405250810190610ba89190611b86565b97505b610bd26103e8610bc4868661118690919063ffffffff16565b61120190919063ffffffff16565b9550610bf981610beb888661125990919063ffffffff16565b61125990919063ffffffff16565b94506040518060a001604052808881526020018681526020018781526020018481526020018973ffffffffffffffffffffffffffffffffffffffff1681525098505050505050505050949350505050565b600082868587604051602001610c639493929190611c1c565b604051602081830303815290604052805190602001209050610c858183611310565b73ffffffffffffffffffffffffffffffffffffffff168773ffffffffffffffffffffffffffffffffffffffff1614610cf2576040517f08c379a0000000000000000000000000000000000000000000000000000000008152600401610ce990611cb6565b60405180910390fd5b50505050505050565b600180811115610d0e57610d0d611b00565b5b82608001516001811115610d2557610d24611b00565b5b1415610dcf57600060029054906101000a900473ffffffffffffffffffffffffffffffffffffffff1673ffffffffffffffffffffffffffffffffffffffff1663f709b9068360600151846000015185602001518660e001516040518563ffffffff1660e01b8152600401610d9c9493929190611cf7565b600060405180830381600087803b158015610db657600080fd5b505af1158015610dca573d6000803e3d6000fd5b505050505b60006001811115610de357610de2611b00565b5b82608001516001811115610dfa57610df9611b00565b5b1415610eab57600060029054906101000a900473ffffffffffffffffffffffffffffffffffffffff1673ffffffffffffffffffffffffffffffffffffffff16639c1c2ee98360600151846000015185602001518660e001518761010001516040518663ffffffff1660e01b8152600401610e78959493929190611d94565b600060405180830381600087803b158015610e9257600080fd5b505af1158015610ea6573d6000803e3d6000fd5b505050505b600081600001511115610f7a57600060029054906101000a900473ffffffffffffffffffffffffffffffffffffffff1673ffffffffffffffffffffffffffffffffffffffff1663776062c383604001518460200151600160009054906101000a900473ffffffffffffffffffffffffffffffffffffffff1685600001516040518563ffffffff1660e01b8152600401610f479493929190611e1b565b600060405180830381600087803b158015610f6157600080fd5b505af1158015610f75573d6000803e3d6000fd5b505050505b60008160400151111561102b57600060029054906101000a900473ffffffffffffffffffffffffffffffffffffffff1673ffffffffffffffffffffffffffffffffffffffff1663776062c383604001518460200151846080015185604001516040518563ffffffff1660e01b8152600401610ff89493929190611e1b565b600060405180830381600087803b15801561101257600080fd5b505af1158015611026573d6000803e3d6000fd5b505050505b600060029054906101000a900473ffffffffffffffffffffffffffffffffffffffff1673ffffffffffffffffffffffffffffffffffffffff1663776062c383604001518460200151856000015185602001516040518563ffffffff1660e01b815260040161109c9493929190611e1b565b600060405180830381600087803b1580156110b657600080fd5b505af11580156110ca573d6000803e3d6000fd5b505050505050565b600083878688866040516020016110ed959493929190611e60565b60405160208183030381529060405280519060200120905061110f8183611310565b73ffffffffffffffffffffffffffffffffffffffff168873ffffffffffffffffffffffffffffffffffffffff161461117c576040517f08c379a000000000000000000000000000000000000000000000000000000000815260040161117390611f0b565b60405180910390fd5b5050505050505050565b60008083141561119957600090506111fb565b600082846111a791906119ca565b90508284826111b69190611f5a565b146111f6576040517f08c379a00000000000000000000000000000000000000000000000000000000081526004016111ed90611ffd565b60405180910390fd5b809150505b92915050565b6000808211611245576040517f08c379a000000000000000000000000000000000000000000000000000000000815260040161123c90612069565b60405180910390fd5b81836112519190611f5a565b905092915050565b60008282111561129e576040517f08c379a0000000000000000000000000000000000000000000000000000000008152600401611295906120d5565b60405180910390fd5b81836112aa91906120f5565b905092915050565b60008082846112c19190612129565b905083811015611306576040517f08c379a00000000000000000000000000000000000000000000000000000000081526004016112fd906121cb565b60405180910390fd5b8091505092915050565b60006001836040516020016113259190612263565b60405160208183030381529060405280519060200120836000015184602001518560400151604051600081526020016040526040516113679493929190612298565b6020604051602081039080840390855afa158015611389573d6000803e3d6000fd5b50505060206040510351905092915050565b6040518060a0016040528060008152602001600081526020016000815260200160008152602001600073ffffffffffffffffffffffffffffffffffffffff1681525090565b600060ff82169050919050565b6113f6816113e0565b82525050565b600060208201905061141160008301846113ed565b92915050565b600073ffffffffffffffffffffffffffffffffffffffff82169050919050565b6000819050919050565b600061145c61145761145284611417565b611437565b611417565b9050919050565b600061146e82611441565b9050919050565b600061148082611463565b9050919050565b61149081611475565b82525050565b60006020820190506114ab6000830184611487565b92915050565b6000604051905090565b600080fd5b60006114cb82611417565b9050919050565b6114db816114c0565b81146114e657600080fd5b50565b6000813590506114f8816114d2565b92915050565b600060208284031215611514576115136114bb565b5b6000611522848285016114e9565b91505092915050565b60008115159050919050565b6115408161152b565b82525050565b600060208201905061155b6000830184611537565b92915050565b600080fd5b6000601f19601f8301169050919050565b7f4e487b7100000000000000000000000000000000000000000000000000000000600052604160045260246000fd5b6115af82611566565b810181811067ffffffffffffffff821117156115ce576115cd611577565b5b80604052505050565b60006115e16114b1565b90506115ed82826115a6565b919050565b600281106115ff57600080fd5b50565b600081359050611611816115f2565b92915050565b6000819050919050565b61162a81611617565b811461163557600080fd5b50565b60008135905061164781611621565b92915050565b6000610120828403121561166457611663611561565b5b61166f6101206115d7565b9050600061167f848285016114e9565b6000830152506020611693848285016114e9565b60208301525060406116a7848285016114e9565b60408301525060606116bb848285016114e9565b60608301525060806116cf84828501611602565b60808301525060a06116e384828501611638565b60a08301525060c06116f784828501611638565b60c08301525060e061170b84828501611638565b60e08301525061010061172084828501611638565b6101008301525092915050565b611736816113e0565b811461174157600080fd5b50565b6000813590506117538161172d565b92915050565b6000819050919050565b61176c81611759565b811461177757600080fd5b50565b60008135905061178981611763565b92915050565b6000606082840312156117a5576117a4611561565b5b6117af60606115d7565b905060006117bf84828501611744565b60008301525060206117d38482850161177a565b60208301525060406117e78482850161177a565b60408301525092915050565b600080610180838503121561180b5761180a6114bb565b5b60006118198582860161164d565b92505061012061182b8582860161178f565b9150509250929050565b61183e816114c0565b82525050565b60006020820190506118596000830184611835565b92915050565b600060208284031215611875576118746114bb565b5b600061188384828501611744565b91505092915050565b600082825260208201905092915050565b7f4f776e61626c653a2063616c6c6572206973206e6f7420746865206f776e6572600082015250565b60006118d360208361188c565b91506118de8261189d565b602082019050919050565b60006020820190508181036000830152611902816118c6565b9050919050565b7f4f776e61626c653a206e6577206f776e657220697320746865207a65726f206160008201527f6464726573730000000000000000000000000000000000000000000000000000602082015250565b600061196560268361188c565b915061197082611909565b604082019050919050565b6000602082019050818103600083015261199481611958565b9050919050565b7f4e487b7100000000000000000000000000000000000000000000000000000000600052601160045260246000fd5b60006119d582611617565b91506119e083611617565b9250817fffffffffffffffffffffffffffffffffffffffffffffffffffffffffffffffff0483118215151615611a1957611a1861199b565b5b828202905092915050565b7f5061696420696e76616c696420616d6f756e7400000000000000000000000000600082015250565b6000611a5a60138361188c565b9150611a6582611a24565b602082019050919050565b60006020820190508181036000830152611a8981611a4d565b9050919050565b611a9981611617565b82525050565b6000602082019050611ab46000830184611a90565b92915050565b600061ffff82169050919050565b6000611ad382611aba565b9150611ade83611aba565b92508261ffff03821115611af557611af461199b565b5b828201905092915050565b7f4e487b7100000000000000000000000000000000000000000000000000000000600052602160045260246000fd5b600081519050611b3e81611621565b92915050565b600060208284031215611b5a57611b596114bb565b5b6000611b6884828501611b2f565b91505092915050565b600081519050611b80816114d2565b92915050565b600060208284031215611b9c57611b9b6114bb565b5b6000611baa84828501611b71565b91505092915050565b60008160601b9050919050565b6000611bcb82611bb3565b9050919050565b6000611bdd82611bc0565b9050919050565b611bf5611bf0826114c0565b611bd2565b82525050565b6000819050919050565b611c16611c1182611617565b611bfb565b82525050565b6000611c288287611be4565b601482019150611c388286611c05565b602082019150611c488285611be4565b601482019150611c588284611c05565b60208201915081905095945050505050565b7f73656c6c6572207369676e20766572696669636174696f6e206661696c656400600082015250565b6000611ca0601f8361188c565b9150611cab82611c6a565b602082019050919050565b60006020820190508181036000830152611ccf81611c93565b9050919050565b6000611ce182611463565b9050919050565b611cf181611cd6565b82525050565b6000608082019050611d0c6000830187611ce8565b611d196020830186611835565b611d266040830185611835565b611d336060830184611a90565b95945050505050565b6000611d4782611463565b9050919050565b611d5781611d3c565b82525050565b600082825260208201905092915050565b50565b6000611d7e600083611d5d565b9150611d8982611d6e565b600082019050919050565b600060c082019050611da96000830188611d4e565b611db66020830187611835565b611dc36040830186611835565b611dd06060830185611a90565b611ddd6080830184611a90565b81810360a0830152611dee81611d71565b90509695505050505050565b6000611e0582611463565b9050919050565b611e1581611dfa565b82525050565b6000608082019050611e306000830187611e0c565b611e3d6020830186611835565b611e4a6040830185611835565b611e576060830184611a90565b95945050505050565b6000611e6c8288611be4565b601482019150611e7c8287611c05565b602082019150611e8c8286611be4565b601482019150611e9c8285611c05565b602082019150611eac8284611c05565b6020820191508190509695505050505050565b7f6275796572207369676e20766572696669636174696f6e206661696c65640000600082015250565b6000611ef5601e8361188c565b9150611f0082611ebf565b602082019050919050565b60006020820190508181036000830152611f2481611ee8565b9050919050565b7f4e487b7100000000000000000000000000000000000000000000000000000000600052601260045260246000fd5b6000611f6582611617565b9150611f7083611617565b925082611f8057611f7f611f2b565b5b828204905092915050565b7f536166654d6174683a206d756c7469706c69636174696f6e206f766572666c6f60008201527f7700000000000000000000000000000000000000000000000000000000000000602082015250565b6000611fe760218361188c565b9150611ff282611f8b565b604082019050919050565b6000602082019050818103600083015261201681611fda565b9050919050565b7f536166654d6174683a206469766973696f6e206279207a65726f000000000000600082015250565b6000612053601a8361188c565b915061205e8261201d565b602082019050919050565b6000602082019050818103600083015261208281612046565b9050919050565b7f536166654d6174683a207375627472616374696f6e206f766572666c6f770000600082015250565b60006120bf601e8361188c565b91506120ca82612089565b602082019050919050565b600060208201905081810360008301526120ee816120b2565b9050919050565b600061210082611617565b915061210b83611617565b92508282101561211e5761211d61199b565b5b828203905092915050565b600061213482611617565b915061213f83611617565b9250827fffffffffffffffffffffffffffffffffffffffffffffffffffffffffffffffff038211156121745761217361199b565b5b828201905092915050565b7f536166654d6174683a206164646974696f6e206f766572666c6f770000000000600082015250565b60006121b5601b8361188c565b91506121c08261217f565b602082019050919050565b600060208201905081810360008301526121e4816121a8565b9050919050565b600081905092915050565b7f19457468657265756d205369676e6564204d6573736167653a0a333200000000600082015250565b600061222c601c836121eb565b9150612237826121f6565b601c82019050919050565b6000819050919050565b61225d61225882611759565b612242565b82525050565b600061226e8261221f565b915061227a828461224c565b60208201915081905092915050565b61229281611759565b82525050565b60006080820190506122ad6000830187612289565b6122ba60208301866113ed565b6122c76040830185612289565b6122d46060830184612289565b9594505050505056fea264697066735822122043e7bc551488f3c410813a484fe3f2c55fc7f041dc7fce87cc5ad01e219f850764736f6c634300080c0033",
  "immutableReferences": {},
  "source": "// SPDX-License-Identifier:UNLICENSED\npragma solidity ^0.8.4;\n\nimport \"./token/ERC721/interfaces/IERC721.sol\";\nimport \"./token/ERC1155/interfaces/IERC1155.sol\";\nimport \"./token/ERC20/interfaces/IERC20.sol\";\n\nimport \"./lib/SafeMath.sol\";\n\nimport \"./TransferProxy.sol\";\n\ncontract Trade {\n    using SafeMath for uint256;\n\n    enum BuyingAssetType {\n        ERC1155,\n        ERC721\n    }\n\n    event OwnershipTransferred(\n        address indexed previousOwner,\n        address indexed newOwner\n    );\n    event SellerFee(uint8 sellerFee);\n    event BuyerFee(uint8 buyerFee);\n    event BuyAsset(\n        address indexed assetOwner,\n        uint256 indexed tokenId,\n        uint256 quantity,\n        address indexed buyer\n    );\n    event ExecuteBid(\n        address indexed assetOwner,\n        uint256 indexed tokenId,\n        uint256 quantity,\n        address indexed buyer\n    );\n\n    uint8 private buyerFeePermille;\n    uint8 private sellerFeePermille;\n    TransferProxy public transferProxy;\n    address public owner;\n\n    struct Fee {\n        uint256 platformFee;\n        uint256 assetFee;\n        uint256 royaltyFee;\n        uint256 price;\n        address tokenCreator;\n    }\n\n    /* An ECDSA signature. */\n    struct Sign {\n        uint8 v;\n        bytes32 r;\n        bytes32 s;\n    }\n\n    struct Order {\n        address seller;\n        address buyer;\n        address erc20Address;\n        address nftAddress;\n        BuyingAssetType nftType;\n        uint256 unitPrice;\n        uint256 amount;\n        uint256 tokenId;\n        uint256 qty;\n    }\n\n    modifier onlyOwner() {\n        require(owner == msg.sender, \"Ownable: caller is not the owner\");\n        _;\n    }\n\n    constructor(\n        uint8 _buyerFee,\n        uint8 _sellerFee,\n        TransferProxy _transferProxy\n    ) {\n        buyerFeePermille = _buyerFee;\n        sellerFeePermille = _sellerFee;\n        transferProxy = _transferProxy;\n        owner = msg.sender;\n    }\n\n    function buyerServiceFee() public view virtual returns (uint8) {\n        return buyerFeePermille;\n    }\n\n    function sellerServiceFee() public view virtual returns (uint8) {\n        return sellerFeePermille;\n    }\n\n    function setBuyerServiceFee(uint8 _buyerFee)\n        public\n        onlyOwner\n        returns (bool)\n    {\n        buyerFeePermille = _buyerFee;\n        emit BuyerFee(buyerFeePermille);\n        return true;\n    }\n\n    function setSellerServiceFee(uint8 _sellerFee)\n        public\n        onlyOwner\n        returns (bool)\n    {\n        sellerFeePermille = _sellerFee;\n        emit SellerFee(sellerFeePermille);\n        return true;\n    }\n\n    function ownerTransfership(address newOwner)\n        public\n        onlyOwner\n        returns (bool)\n    {\n        require(\n            newOwner != address(0),\n            \"Ownable: new owner is the zero address\"\n        );\n        emit OwnershipTransferred(owner, newOwner);\n        owner = newOwner;\n        return true;\n    }\n\n    function getSigner(bytes32 hash, Sign memory sign)\n        internal\n        pure\n        returns (address)\n    {\n        return\n            ecrecover(\n                keccak256(\n                    abi.encodePacked(\"\\x19Ethereum Signed Message:\\n32\", hash)\n                ),\n                sign.v,\n                sign.r,\n                sign.s\n            );\n    }\n\n    function verifySellerSign(\n        address seller,\n        uint256 tokenId,\n        uint256 amount,\n        address paymentAssetAddress,\n        address assetAddress,\n        Sign memory sign\n    ) internal pure {\n        bytes32 hash = keccak256(\n            abi.encodePacked(assetAddress, tokenId, paymentAssetAddress, amount)\n        );\n        require(\n            seller == getSigner(hash, sign),\n            \"seller sign verification failed\"\n        );\n    }\n\n    function verifyBuyerSign(\n        address buyer,\n        uint256 tokenId,\n        uint256 amount,\n        address paymentAssetAddress,\n        address assetAddress,\n        uint256 qty,\n        Sign memory sign\n    ) internal pure {\n        bytes32 hash = keccak256(\n            abi.encodePacked(\n                assetAddress,\n                tokenId,\n                paymentAssetAddress,\n                amount,\n                qty\n            )\n        );\n        require(\n            buyer == getSigner(hash, sign),\n            \"buyer sign verification failed\"\n        );\n    }\n\n    function getFees(\n        uint256 paymentAmt,\n        BuyingAssetType buyingAssetType,\n        address buyingAssetAddress,\n        uint256 tokenId\n    ) internal view returns (Fee memory) {\n        address tokenCreator;\n        uint256 platformFee;\n        uint256 royaltyFee;\n        uint256 assetFee;\n        uint256 royaltyPermille;\n        uint256 price = paymentAmt.mul(1000).div((1000 + buyerFeePermille));\n        uint256 buyerFee = paymentAmt.sub(price);\n        uint256 sellerFee = price.mul(sellerFeePermille).div(1000);\n        platformFee = buyerFee.add(sellerFee);\n        if (buyingAssetType == BuyingAssetType.ERC721) {\n            royaltyPermille = (\n                (IERC721(buyingAssetAddress).royaltyFee(tokenId))\n            );\n            tokenCreator = ((IERC721(buyingAssetAddress).getCreator(tokenId)));\n        }\n        if (buyingAssetType == BuyingAssetType.ERC1155) {\n            royaltyPermille = (\n                (IERC1155(buyingAssetAddress).royaltyFee(tokenId))\n            );\n            tokenCreator = ((IERC1155(buyingAssetAddress).getCreator(tokenId)));\n        }\n        royaltyFee = price.mul(royaltyPermille).div(1000);\n        assetFee = price.sub(royaltyFee).sub(sellerFee);\n        return Fee(platformFee, assetFee, royaltyFee, price, tokenCreator);\n    }\n\n    function tradeAsset(Order memory order, Fee memory fee) internal virtual {\n        if (order.nftType == BuyingAssetType.ERC721) {\n            transferProxy.erc721safeTransferFrom(\n                IERC721(order.nftAddress),\n                order.seller,\n                order.buyer,\n                order.tokenId\n            );\n        }\n        if (order.nftType == BuyingAssetType.ERC1155) {\n            transferProxy.erc1155safeTransferFrom(\n                IERC1155(order.nftAddress),\n                order.seller,\n                order.buyer,\n                order.tokenId,\n                order.qty,\n                \"\"\n            );\n        }\n        if (fee.platformFee > 0) {\n            transferProxy.erc20safeTransferFrom(\n                IERC20(order.erc20Address),\n                order.buyer,\n                owner,\n                fee.platformFee\n            );\n        }\n        if (fee.royaltyFee > 0) {\n            transferProxy.erc20safeTransferFrom(\n                IERC20(order.erc20Address),\n                order.buyer,\n                fee.tokenCreator,\n                fee.royaltyFee\n            );\n        }\n        transferProxy.erc20safeTransferFrom(\n            IERC20(order.erc20Address),\n            order.buyer,\n            order.seller,\n            fee.assetFee\n        );\n    }\n\n    function buyAsset(Order memory order, Sign memory sign)\n        public\n        returns (bool)\n    {\n        Fee memory fee = getFees(\n            order.amount,\n            order.nftType,\n            order.nftAddress,\n            order.tokenId\n        );\n        require(\n            (fee.price >= order.unitPrice * order.qty),\n            \"Paid invalid amount\"\n        );\n        verifySellerSign(\n            order.seller,\n            order.tokenId,\n            order.unitPrice,\n            order.erc20Address,\n            order.nftAddress,\n            sign\n        );\n        order.buyer = msg.sender;\n        tradeAsset(order, fee);\n        emit BuyAsset(order.seller, order.tokenId, order.qty, msg.sender);\n        return true;\n    }\n\n    function executeBid(Order memory order, Sign memory sign)\n        public\n        returns (bool)\n    {\n        Fee memory fee = getFees(\n            order.amount,\n            order.nftType,\n            order.nftAddress,\n            order.tokenId\n        );\n        verifyBuyerSign(\n            order.buyer,\n            order.tokenId,\n            order.amount,\n            order.erc20Address,\n            order.nftAddress,\n            order.qty,\n            sign\n        );\n        order.seller = msg.sender;\n        tradeAsset(order, fee);\n        emit ExecuteBid(msg.sender, order.tokenId, order.qty, order.buyer);\n        return true;\n    }\n}\n",
  "sourcePath": "/Users/iltersag/projects/nextdream/NextPlanet-contracts/contracts/Trade.sol",
  "compiler": {
    "name": "solc",
    "version": "0.8.12+commit.f00d7308.Emscripten.clang"
  },
  "schemaVersion": "3.4.5",
  "updatedAt": "2022-04-05T20:38:07.790Z",
  "networkType": "ethereum",
  "devdoc": {
    "kind": "dev",
    "methods": {},
    "version": 1
  },
  "userdoc": {
    "kind": "user",
    "methods": {},
    "version": 1
  }
}