{
  "contractName": "TransferProxy",
  "abi": [
    {
      "inputs": [],
      "stateMutability": "nonpayable",
      "type": "constructor"
    },
    {
      "anonymous": false,
      "inputs": [
        {
          "indexed": true,
          "internalType": "address",
          "name": "previousOwner",
          "type": "address"
        },
        {
          "indexed": true,
          "internalType": "address",
          "name": "newOwner",
          "type": "address"
        }
      ],
      "name": "OwnershipTransferred",
      "type": "event"
    },
    {
      "anonymous": false,
      "inputs": [
        {
          "indexed": true,
          "internalType": "address",
          "name": "from",
          "type": "address"
        },
        {
          "indexed": true,
          "internalType": "address",
          "name": "to",
          "type": "address"
        }
      ],
      "name": "operatorChanged",
      "type": "event"
    },
    {
      "inputs": [],
      "name": "operator",
      "outputs": [
        {
          "internalType": "address",
          "name": "",
          "type": "address"
        }
      ],
      "stateMutability": "view",
      "type": "function",
      "constant": true
    },
    {
      "inputs": [],
      "name": "owner",
      "outputs": [
        {
          "internalType": "address",
          "name": "",
          "type": "address"
        }
      ],
      "stateMutability": "view",
      "type": "function",
      "constant": true
    },
    {
      "inputs": [
        {
          "internalType": "address",
          "name": "_operator",
          "type": "address"
        }
      ],
      "name": "changeOperator",
      "outputs": [
        {
          "internalType": "bool",
          "name": "",
          "type": "bool"
        }
      ],
      "stateMutability": "nonpayable",
      "type": "function"
    },
    {
      "inputs": [
        {
          "internalType": "address",
          "name": "newOwner",
          "type": "address"
        }
      ],
      "name": "ownerTransfership",
      "outputs": [
        {
          "internalType": "bool",
          "name": "",
          "type": "bool"
        }
      ],
      "stateMutability": "nonpayable",
      "type": "function"
    },
    {
      "inputs": [
        {
          "internalType": "contract IERC721",
          "name": "token",
          "type": "address"
        },
        {
          "internalType": "address",
          "name": "from",
          "type": "address"
        },
        {
          "internalType": "address",
          "name": "to",
          "type": "address"
        },
        {
          "internalType": "uint256",
          "name": "tokenId",
          "type": "uint256"
        }
      ],
      "name": "erc721safeTransferFrom",
      "outputs": [],
      "stateMutability": "nonpayable",
      "type": "function"
    },
    {
      "inputs": [
        {
          "internalType": "contract IERC1155",
          "name": "token",
          "type": "address"
        },
        {
          "internalType": "address",
          "name": "from",
          "type": "address"
        },
        {
          "internalType": "address",
          "name": "to",
          "type": "address"
        },
        {
          "internalType": "uint256",
          "name": "tokenId",
          "type": "uint256"
        },
        {
          "internalType": "uint256",
          "name": "value",
          "type": "uint256"
        },
        {
          "internalType": "bytes",
          "name": "data",
          "type": "bytes"
        }
      ],
      "name": "erc1155safeTransferFrom",
      "outputs": [],
      "stateMutability": "nonpayable",
      "type": "function"
    },
    {
      "inputs": [
        {
          "internalType": "contract IERC20",
          "name": "token",
          "type": "address"
        },
        {
          "internalType": "address",
          "name": "from",
          "type": "address"
        },
        {
          "internalType": "address",
          "name": "to",
          "type": "address"
        },
        {
          "internalType": "uint256",
          "name": "value",
          "type": "uint256"
        }
      ],
      "name": "erc20safeTransferFrom",
      "outputs": [],
      "stateMutability": "nonpayable",
      "type": "function"
    }
  ],
  "bytecode": "0x608060405234801561001057600080fd5b50336000806101000a81548173ffffffffffffffffffffffffffffffffffffffff021916908373ffffffffffffffffffffffffffffffffffffffff1602179055506110a3806100606000396000f3fe608060405234801561001057600080fd5b506004361061007d5760003560e01c8063776062c31161005b578063776062c3146101005780638da5cb5b1461011c5780639c1c2ee91461013a578063f709b906146101565761007d565b806306394c9b14610082578063570ca735146100b25780636fdc202f146100d0575b600080fd5b61009c60048036038101906100979190610916565b610172565b6040516100a9919061095e565b60405180910390f35b6100ba610339565b6040516100c79190610988565b60405180910390f35b6100ea60048036038101906100e59190610916565b61035f565b6040516100f7919061095e565b60405180910390f35b61011a60048036038101906101159190610a17565b610522565b005b610124610677565b6040516101319190610988565b60405180910390f35b610154600480360381019061014f9190610b21565b61069b565b005b610170600480360381019061016b9190610c0e565b6107a9565b005b60003373ffffffffffffffffffffffffffffffffffffffff1660008054906101000a900473ffffffffffffffffffffffffffffffffffffffff1673ffffffffffffffffffffffffffffffffffffffff1614610202576040517f08c379a00000000000000000000000000000000000000000000000000000000081526004016101f990610cd2565b60405180910390fd5b600073ffffffffffffffffffffffffffffffffffffffff168273ffffffffffffffffffffffffffffffffffffffff161415610272576040517f08c379a000000000000000000000000000000000000000000000000000000000815260040161026990610d64565b60405180910390fd5b81600160006101000a81548173ffffffffffffffffffffffffffffffffffffffff021916908373ffffffffffffffffffffffffffffffffffffffff160217905550600160009054906101000a900473ffffffffffffffffffffffffffffffffffffffff1673ffffffffffffffffffffffffffffffffffffffff16600073ffffffffffffffffffffffffffffffffffffffff167f1a377613c0f1788c756a416e15f930cf9e84c3a5e808fa2f00b5a18a91a7b86460405160405180910390a360019050919050565b600160009054906101000a900473ffffffffffffffffffffffffffffffffffffffff1681565b60003373ffffffffffffffffffffffffffffffffffffffff1660008054906101000a900473ffffffffffffffffffffffffffffffffffffffff1673ffffffffffffffffffffffffffffffffffffffff16146103ef576040517f08c379a00000000000000000000000000000000000000000000000000000000081526004016103e690610cd2565b60405180910390fd5b600073ffffffffffffffffffffffffffffffffffffffff168273ffffffffffffffffffffffffffffffffffffffff16141561045f576040517f08c379a000000000000000000000000000000000000000000000000000000000815260040161045690610df6565b60405180910390fd5b816000806101000a81548173ffffffffffffffffffffffffffffffffffffffff021916908373ffffffffffffffffffffffffffffffffffffffff1602179055508173ffffffffffffffffffffffffffffffffffffffff1660008054906101000a900473ffffffffffffffffffffffffffffffffffffffff1673ffffffffffffffffffffffffffffffffffffffff167f8be0079c531659141344cd1fd0a4f28419497f9722a3daafe3b4186f6b6457e060405160405180910390a360019050919050565b3373ffffffffffffffffffffffffffffffffffffffff16600160009054906101000a900473ffffffffffffffffffffffffffffffffffffffff1673ffffffffffffffffffffffffffffffffffffffff16146105b2576040517f08c379a00000000000000000000000000000000000000000000000000000000081526004016105a990610e88565b60405180910390fd5b8373ffffffffffffffffffffffffffffffffffffffff166323b872dd8484846040518463ffffffff1660e01b81526004016105ef93929190610eb7565b6020604051808303816000875af115801561060e573d6000803e3d6000fd5b505050506040513d601f19601f820116820180604052508101906106329190610f1a565b610671576040517f08c379a000000000000000000000000000000000000000000000000000000000815260040161066890610f93565b60405180910390fd5b50505050565b60008054906101000a900473ffffffffffffffffffffffffffffffffffffffff1681565b3373ffffffffffffffffffffffffffffffffffffffff16600160009054906101000a900473ffffffffffffffffffffffffffffffffffffffff1673ffffffffffffffffffffffffffffffffffffffff161461072b576040517f08c379a000000000000000000000000000000000000000000000000000000000815260040161072290610e88565b60405180910390fd5b8673ffffffffffffffffffffffffffffffffffffffff1663f242432a8787878787876040518763ffffffff1660e01b815260040161076e96959493929190611011565b600060405180830381600087803b15801561078857600080fd5b505af115801561079c573d6000803e3d6000fd5b5050505050505050505050565b3373ffffffffffffffffffffffffffffffffffffffff16600160009054906101000a900473ffffffffffffffffffffffffffffffffffffffff1673ffffffffffffffffffffffffffffffffffffffff1614610839576040517f08c379a000000000000000000000000000000000000000000000000000000000815260040161083090610e88565b60405180910390fd5b8373ffffffffffffffffffffffffffffffffffffffff166342842e0e8484846040518463ffffffff1660e01b815260040161087693929190610eb7565b600060405180830381600087803b15801561089057600080fd5b505af11580156108a4573d6000803e3d6000fd5b5050505050505050565b600080fd5b600080fd5b600073ffffffffffffffffffffffffffffffffffffffff82169050919050565b60006108e3826108b8565b9050919050565b6108f3816108d8565b81146108fe57600080fd5b50565b600081359050610910816108ea565b92915050565b60006020828403121561092c5761092b6108ae565b5b600061093a84828501610901565b91505092915050565b60008115159050919050565b61095881610943565b82525050565b6000602082019050610973600083018461094f565b92915050565b610982816108d8565b82525050565b600060208201905061099d6000830184610979565b92915050565b60006109ae826108d8565b9050919050565b6109be816109a3565b81146109c957600080fd5b50565b6000813590506109db816109b5565b92915050565b6000819050919050565b6109f4816109e1565b81146109ff57600080fd5b50565b600081359050610a11816109eb565b92915050565b60008060008060808587031215610a3157610a306108ae565b5b6000610a3f878288016109cc565b9450506020610a5087828801610901565b9350506040610a6187828801610901565b9250506060610a7287828801610a02565b91505092959194509250565b6000610a89826108d8565b9050919050565b610a9981610a7e565b8114610aa457600080fd5b50565b600081359050610ab681610a90565b92915050565b600080fd5b600080fd5b600080fd5b60008083601f840112610ae157610ae0610abc565b5b8235905067ffffffffffffffff811115610afe57610afd610ac1565b5b602083019150836001820283011115610b1a57610b19610ac6565b5b9250929050565b600080600080600080600060c0888a031215610b4057610b3f6108ae565b5b6000610b4e8a828b01610aa7565b9750506020610b5f8a828b01610901565b9650506040610b708a828b01610901565b9550506060610b818a828b01610a02565b9450506080610b928a828b01610a02565b93505060a088013567ffffffffffffffff811115610bb357610bb26108b3565b5b610bbf8a828b01610acb565b925092505092959891949750929550565b6000610bdb826108d8565b9050919050565b610beb81610bd0565b8114610bf657600080fd5b50565b600081359050610c0881610be2565b92915050565b60008060008060808587031215610c2857610c276108ae565b5b6000610c3687828801610bf9565b9450506020610c4787828801610901565b9350506040610c5887828801610901565b9250506060610c6987828801610a02565b91505092959194509250565b600082825260208201905092915050565b7f4f776e61626c653a2063616c6c6572206973206e6f7420746865206f776e6572600082015250565b6000610cbc602083610c75565b9150610cc782610c86565b602082019050919050565b60006020820190508181036000830152610ceb81610caf565b9050919050565b7f4f70657261746f723a206e6577206f70657261746f7220697320746865207a6560008201527f726f206164647265737300000000000000000000000000000000000000000000602082015250565b6000610d4e602a83610c75565b9150610d5982610cf2565b604082019050919050565b60006020820190508181036000830152610d7d81610d41565b9050919050565b7f4f776e61626c653a206e6577206f776e657220697320746865207a65726f206160008201527f6464726573730000000000000000000000000000000000000000000000000000602082015250565b6000610de0602683610c75565b9150610deb82610d84565b604082019050919050565b60006020820190508181036000830152610e0f81610dd3565b9050919050565b7f4f70657261746f72526f6c653a2063616c6c657220646f6573206e6f7420686160008201527f766520746865204f70657261746f7220726f6c65000000000000000000000000602082015250565b6000610e72603483610c75565b9150610e7d82610e16565b604082019050919050565b60006020820190508181036000830152610ea181610e65565b9050919050565b610eb1816109e1565b82525050565b6000606082019050610ecc6000830186610979565b610ed96020830185610979565b610ee66040830184610ea8565b949350505050565b610ef781610943565b8114610f0257600080fd5b50565b600081519050610f1481610eee565b92915050565b600060208284031215610f3057610f2f6108ae565b5b6000610f3e84828501610f05565b91505092915050565b7f6661696c757265207768696c65207472616e7366657272696e67000000000000600082015250565b6000610f7d601a83610c75565b9150610f8882610f47565b602082019050919050565b60006020820190508181036000830152610fac81610f70565b9050919050565b600082825260208201905092915050565b82818337600083830152505050565b6000601f19601f8301169050919050565b6000610ff08385610fb3565b9350610ffd838584610fc4565b61100683610fd3565b840190509392505050565b600060a0820190506110266000830189610979565b6110336020830188610979565b6110406040830187610ea8565b61104d6060830186610ea8565b8181036080830152611060818486610fe4565b905097965050505050505056fea2646970667358221220c6bc8d26885ac2ee5777ce4cec9759edea0f4813223e3a70c5fd611e72eee26064736f6c634300080c0033",
  "immutableReferences": {},
  "source": "//SPDX-License-Identifier: UNLICENSED\npragma solidity ^0.8.4;\n\nimport \"./token/ERC721/interfaces/IERC721.sol\";\nimport \"./token/ERC1155/interfaces/IERC1155.sol\";\nimport \"./token/ERC20/interfaces/IERC20.sol\";\n\ncontract TransferProxy {\n    event operatorChanged(address indexed from, address indexed to);\n    event OwnershipTransferred(\n        address indexed previousOwner,\n        address indexed newOwner\n    );\n\n    address public owner;\n    address public operator;\n\n    constructor() {\n        owner = msg.sender;\n    }\n\n    /**\n     * @dev Throws if called by any account other than the owner.\n     */\n\n    modifier onlyOwner() {\n        require(owner == msg.sender, \"Ownable: caller is not the owner\");\n        _;\n    }\n\n    modifier onlyOperator() {\n        require(\n            operator == msg.sender,\n            \"OperatorRole: caller does not have the Operator role\"\n        );\n        _;\n    }\n\n    /** change the OperatorRole from contract creator address to trade contractaddress\n            @param _operator :trade address \n        */\n\n    function changeOperator(address _operator) public onlyOwner returns (bool) {\n        require(\n            _operator != address(0),\n            \"Operator: new operator is the zero address\"\n        );\n        operator = _operator;\n        emit operatorChanged(address(0), operator);\n        return true;\n    }\n\n    /** change the Ownership from current owner to newOwner address\n        @param newOwner : newOwner address */\n\n    function ownerTransfership(address newOwner)\n        public\n        onlyOwner\n        returns (bool)\n    {\n        require(\n            newOwner != address(0),\n            \"Ownable: new owner is the zero address\"\n        );\n        owner = newOwner;\n        emit OwnershipTransferred(owner, newOwner);\n        return true;\n    }\n\n    function erc721safeTransferFrom(\n        IERC721 token,\n        address from,\n        address to,\n        uint256 tokenId\n    ) external onlyOperator {\n        token.safeTransferFrom(from, to, tokenId);\n    }\n\n    function erc1155safeTransferFrom(\n        IERC1155 token,\n        address from,\n        address to,\n        uint256 tokenId,\n        uint256 value,\n        bytes calldata data\n    ) external onlyOperator {\n        token.safeTransferFrom(from, to, tokenId, value, data);\n    }\n\n    function erc20safeTransferFrom(\n        IERC20 token,\n        address from,\n        address to,\n        uint256 value\n    ) external onlyOperator {\n        require(\n            token.transferFrom(from, to, value),\n            \"failure while transferring\"\n        );\n    }\n}\n",
  "sourcePath": "/Users/iltersag/projects/nextdream/NextPlanet-contracts/contracts/TransferProxy.sol",
  "compiler": {
    "name": "solc",
    "version": "0.8.12+commit.f00d7308.Emscripten.clang"
  },
  "schemaVersion": "3.4.5",
  "updatedAt": "2022-04-05T20:38:07.778Z",
  "networkType": "ethereum",
  "devdoc": {
    "kind": "dev",
    "methods": {
      "changeOperator(address)": {
        "params": {
          "_operator": ":trade address "
        }
      },
      "ownerTransfership(address)": {
        "params": {
          "newOwner": ": newOwner address "
        }
      }
    },
    "version": 1
  },
  "userdoc": {
    "kind": "user",
    "methods": {
      "changeOperator(address)": {
        "notice": "change the OperatorRole from contract creator address to trade contractaddress"
      },
      "ownerTransfership(address)": {
        "notice": "change the Ownership from current owner to newOwner address"
      }
    },
    "version": 1
  }
}